:400000000080002011000000A9190000A919000008B5044B1A6803F53F5302331A6001F0CBFC00BFFA46004010B5054C237833B9044B13B10448AFF300800123237010BD2B
:400040001083FF1F0000000050310000084B10B51BB108490848AFF300800848036803B910BD074B002BFBD0BDE81040184700BF000000001483FF1F50310000C880FF1F6C
:400080000000000008B5002001F034FF08BD00BF684620F007018D4619B572B6EFF311841E4B1B68DBB20F2B10D9103B23F0030202F1604202F564421168DB0003F0180322
:4000C000E0229A400A4022FA03F306E00F2B03D1134B1B681B0E00E0002383F31188114A136801331360012B01D102F04DFE62B6FFF7C8FF72B684F3118802F0FFF8094AB7
:400100001368013B13601BB902F047FE02F00BFE62B6BDE819408546704700BF04ED00E020ED00E08884FF1F08B562B645F6BF52054B1A60054A136843F0020313600020D0
:4001400002F01EFAFBE700BF14E000E010E000E008B502F0FDFC00F0A3FF02F011FB124A136843F005031360FA220121002001F043FDFA220121022001F03EFD4EF6602292
:400180000121084601F038FD022001F06FFC032001F06CFC042001F069FC012001F066FC02F034FA08BD00BF10E000E0FEE700BF30B587B0364B1B6993F82020012A02D1BF
:4001C000586A02F0A5F8324C03AB94E8070003C323F8022B120C1A70236993F82020012A02D1586A02F03AFA9DF80D3001339DF8101093FBF1F201FB1233DBB28DF80D3050
:4002000023B99DF8123001338DF8123001238DF80C308DF811306B4606AA12E9070003C323F8022B120C1A70194B1B6993F82020012A02D1586A02F06BF8154C23469DE835
:40024000070003C323F8022B120C1A700023E3600223E372236993F82020012A02D1586A02F0FCF90A4B1B695D699B6873B13DB90CE0996855F8240001F0E2FE013400E0E3
:400280000024034B1B691A699442F2D307B030BD0881FF1F30B587B0334B1B6993F82020012A02D1586A02F033F82F4C03AB94E8070003C323F8022B120C1A70236993F8A0
:4002C0002020012A02D1586A02F0C8F99DF81430012B03D18DF813308DF811309DF80F30012B03D18DF80E308DF80C306B4606AA12E9070003C323F8022B120C1A701A4B0E
:400300001B6993F82020012A02D1586A02F000F8154C23469DE8070003C323F8022B120C1A700023E3600223E372236993F82020012A02D1586A02F091F90B4B1B695D69A5
:400340009B6873B13DB90CE0996855F8240001F077FE013400E00024034B1B691A699442F2D307B030BD00BF0881FF1F30B587B03D4B1B6993F82020012A02D1586A01F0C5
:40038000C7FF394C03AB94E8070003C323F8022B120C1A70236993F82020012A02D1586A02F05CF99DF81430012B0DD19DF8123001339DF8151093FBF1F201FB12338DF8CE
:4003C000123001238DF811309DF80F30012B0DD19DF80D3001339DF8101093FBF1F201FB12338DF80D3001238DF80C306B4606AA12E9070003C323F8022B120C1A701A4B61
:400400001B6993F82020012A02D1586A01F080FF154C23469DE8070003C323F8022B120C1A700023E3600223E372236993F82020012A02D1586A02F011F90B4B1B695D699E
:400440009B6873B13DB90CE0996855F8240001F0F7FD013400E00024034B1B691A699442F2D307B030BD00BF0881FF1F30B587B0354B1B6993F82020012A02D1586A01F04D
:4004800047FF314C03AB94E8070003C323F8022B120C1A70236993F82020012A02D1586A02F0DCF89DF81430012B05D100238DF8133001238DF811309DF80F30012B05D12F
:4004C00000238DF80E3001238DF80C306B4606AA12E9070003C323F8022B120C1A701A4B1B6993F82020012A02D1586A01F010FF154C23469DE8070003C323F8022B120C22
:400500001A700023E3600223E372236993F82020012A02D1586A02F0A1F80B4B1B695D699B6873B13DB90CE0996855F8240001F087FD013400E00024034B1B691A699442BB
:40054000F2D307B030BD00BF0881FF1F70B586B006460D46344B1B6993F82020012A02D1586A01F0D5FE304C03AB94E8070003C323F8022B120C1A70236993F82020012A7B
:4005800002D1586A02F06AF82EB901238DF8143000238DF80F30012E05D100238DF8143001238DF80F306B4606AA12E9070003C323F8022B120C1A701B4B1B6993F82020F0
:4005C000012A02D1586A01F0A3FE174C23469DE8070003C323F8022B120C1A700023E3600223E372236993F82020012A02D1586A02F034F80C4B1B695E699B6873B13EB9C6
:400600000CE0996856F8240001F01AFD013400E00024054B1B691A699442F2D32946034800F042FF06B070BD0881FF1FCC80FF1F08B500210846FFF789FF08BD08B50421F8
:400640000020FFF783FF08BD08B502210020FFF77DFF08BD08B501210020FFF777FF08BD08B500210846FFF771FF00210120FFF76DFF08BD08B504210120FFF767FF08BD97
:4006800008B502210120FFF761FF08BD08B501210846FFF75BFF08BD08B500210120FFF755FF08BD10B50C4B9B6893F82020012A02D1586A01F02CFE074B1C789B6893F895
:4006C0002020012A02D1586A01F0C8FF2146034800F0EAFE10BD00BFFC80FF1FDC80FF1F30B585B0A04B9A681368002B56D09E4B1B68ADF808301B0C8DF80A30136802A8F1
:400700009847002834D1029BADF804301B0C8DF80630954B9B6893F82020012A02D1586A01F0F6FD904B019A1A80120C9A7000225A600222DA709B6893F82020012A02D1B5
:40074000586A01F08BFF884B9B685D699B682BB33DB923E0996855F8240001F071FC013400E00024804B9B681A699442F2D315E07D4B0322DA709B68DD69DB6873B13DB9FF
:400780000CE0D96855F8240001F05AFC013400E00024754B9B689A699442F2D3724B9B6893F82020012A02D1586A01F0B1FD6E4A1368ADF80C301B0C8DF80E30936893F84C
:4007C0002020012A02D1586A01F048FF9DF80D30012B31D1654B9B6893F82020012A02D1586A01F095FD614B00221A705A6002225A709B6893F82020012A02D1586A01F081
:400800002DFF5A4B9B685D699B6873B13DB90CE0996855F8240001F013FC013400E00024524B9B681A699442F2D3514802F0D6F9032001F08FF9B1E0002B40F0AF809DF806
:400840000C30002B40F0AA809DF80E30132B2FD8464B9B6893F82020012A02D1586A01F057FD424B01221A7000225A6002225A709B6893F82020012A02D1586A01F0EEFECC
:400880003A4B9B685D699B6873B13DB90CE0996855F8240001F0D4FB013400E00024334B9B681A699442F2D3324802F097F972E0132B70D92D4B9B6893F82020012A02D1BE
:4008C000586A01F025FD294B02221A7000225A6002225A709B6893F82020012A02D1586A01F0BCFE214B9B685D699B6873B13DB90CE0996855F8240001F0A2FB013400E0AB
:4009000000241A4B9B681A699442F2D31A4802F065F900238DF80E30039BADF808301B0C8DF80A30104B9B6893F82020012A02D1586A01F0EDFC0C4B029A1A80120C9A709C
:4009400000225A600222DA709B6893F82020012A02D1586A01F082FE034B9B685D699B68CBB195B917E000BFF080FF1FFC80FF1FB4320000C0320000D0320000996855F844
:40098000240001F05DFB013400E00024044B9B681A699442F2D3032001F0DCF805B030BDF080FF1F38B5164B9B6893F82020012A02D1586A01F0ACFC114B03221A70002267
:4009C0005A6002225A709B6893F82020012A02D1586A01F043FE0A4B9B685D699B6873B13DB938BD996855F8240001F029FB013400E00024024B9B681A699442F2D338BD3C
:400A0000FC80FF1F704700BF30B587B0314BDB7A022B03D12F4803695B6898472D4B1B6993F82020012A02D1586A01F071FC294C03AB94E8070003C323F8022B120C1A70F2
:400A4000236993F82020012A02D1586A01F006FE00238DF811308DF80C306B4606AA12E9070003C323F8022B120C1A70194B1B6993F82020012A02D1586A01F049FC154C9D
:400A800023469DE8070003C323F8022B120C1A700023E3600223E372236993F82020012A02D1586A01F0DAFD0A4B1B695D699B6873B13DB90CE0996855F8240001F0C0FA07
:400AC000013400E00024034B1B691A699442F2D307B030BD0881FF1F30B58BB0664B1B78012B5BD1654B1B6993F82020012A02D1586A01F00DFC614C04AB94E8070003C368
:400B000023F8022B120C1A70236993F82020012A02D1586A01F0A2FD01238DF815308DF8103001AB04AA07CA03C323F8022B120C1A70524B1B6993F82020012A02D1586ADE
:400B400001F0E6FB4D4C234601AA07CA03C323F8022B120C1A700023E3600223E372236993F82020012A02D1586A01F077FD434B1B695D699B6873B13DB90CE0996855F8E4
:400B8000240001F05DFA013400E000243B4B1B691A699442F2D30022374B1A70374B1B6993F82020012A02D1586A01F0B1FB334C07AB94E8070003C323F8022B120C1A70A2
:400BC000236993F82020012A02D1586A01F046FD9DF8233043B99DF81E302BB99DF82630DB438DF8263002E001238DF8263004AB0AAA12E9070003C323F8022B120C1A701F
:400C00001E4B1B6993F82020012A02D1586A01F07FFB1A4C234604AA07CA03C323F8022B120C1A700023E3600223E372236993F82020012A02D1586A01F010FD0F4B1B69FA
:400C40005D699B6873B13DB90CE0996855F8240001F0F6F9013400E00024084B1B691A699442F2D3054BDB7A022B03D1034803695B6898470BB030BDEC80FF1F0881FF1F4D
:400C800000B583B000230193012001F059FA01A9032001F0B5F9019801F084F9019A0121014800F099FCEFE7E832000010B5084C22680221074800F077FC2368FA3323608F
:400CC00013F5807F01D90022226001F09FFC10BD2C83FF1FF432000010B582B000240194062001F02DFA01A9022001F089F9019801F058F9019B13F0040F09D02246022105
:400D0000064800F051FCFA3414F5807F00D90024019A0121024800F05FFCE1E7083300001833000008B532221146032000F064FF08BD00BF684620F007018D4619B572B664
:400D4000EFF311841E4B1B68DBB20F2B10D9103B23F0030202F1604202F564421168DB0003F01803E0229A400A4022FA03F306E00F2B03D1134B1B681B0E00E0002383F3BA
:400D80001188114A136801331360012B01D101F0FBFF62B6FFF7C6FF72B684F3118801F0ADFA094A1368013B13601BB901F0F5FF01F0B9FF62B6BDE819408546704700BF5B
:400DC00004ED00E020ED00E08884FF1F38B5134B988908B319461C89631C9BB2104AA2FB03525209642505FB12330B810138888101EB44018B7B13B1012B04D006E00020D0
:400E000001F0B8FD02E0012001F0B4FD034B03EB4404E07B01F062FD38BD00BF3083FF1F1F85EB5130B5ABB01B4B9B89632B17D92AAD032305F8A83D184B1868CDF8010003
:400E4000174C0FCCCDF81100CDF81510CDF81920CDF81D30284600F0FDFA6FF0070019E00D4D6C89621C92B205EB4404A073E1730C49A1FB02014909642000FB11226A811D
:400E800001339BB2AB81012B03D1FFF79FFF002000E000202BB030BD3083FF1F7C380000803800001F85EB512DE9F04180460E4617461D462A210020FFF7B4FF0021012075
:400EC000FFF7B0FF194C94F8D6104144C9B20120FFF7A8FF00210120FFF7A4FF94F8D6103944C9B20120FFF79DFF2B210020FFF799FF00210120FFF795FF94F8D710314412
:400F0000C9B20120FFF78EFF00210120FFF78AFF94F8D7102944C9B20120FFF783FF2C210020FFF77FFFBDE8F08100BF3083FF1F10B5044636210020FFF774FF04F0030070
:400F40002A4B83F8D80003284ED8DFE800F00215283BC2210120FFF765FF244BA022A3F8DA208022DA8093F8DC2083F8D62093F8DD2083F8D72010BDA2210120FFF752FF1D
:400F80001A4BA022DA808022A3F8DA2093F8DC2083F8D72093F8DD2083F8D62010BD08210120FFF73FFF114BA022A3F8DA208022DA8093F8DC2083F8D62093F8DD2083F892
:400FC000D72010BD62210120FFF72CFF074BA022DA808022A3F8DA2093F8DC2083F8D72093F8DD2083F8D62010BD00BF3083FF1F2DE9F0411F46BDF818501F4BB3F906305F
:40100000834236DD90461C4AB2F8DA20914230DA00EB0804013C9C4202DB1B1A0FFA83F87B18013B9A4201DC571A3FB2C0B2C9B2CB19013B00EB0802013ADBB2D2B2FFF745
:4010400033FF2E0AEDB2012001F094FC0FE031460220FFF7E7FE29460220FFF7E3FE013C24B200E04446002CF1DC013F3FB2002FF8DCBDE8F08100BF3083FF1F00B583B0C2
:40108000064AB2F9DA30B2F90620009000210846FFF7AEFF03B05DF804FB00BF3083FF1FF8B5364B8022DA80A022A3F8DA20002483F8D840A3F8DE40A3F8E04001251D71C1
:4010C0004FF6FF72A3F8E220A3F8E4405D711C6083F8DD4083F8DC4083F8D64083F8D7401C815C819C8101F037FC284601F04EFC642001F06BFB204601F048FC642001F0F3
:4011000065FB284601F042FC142001F05FFB29462046FFF787FE322001F058FB11212046FFF780FE782001F051FB0F22144D14E02C4614F8021B0020FFF774FE6A78254676
:4011400006E06E1C29780120FFF76CFE22463546531EDCB2002AF4D13A46531EDFB2002AE6D10220FFF7E4FE0020FFF787FF01F079FC642001F030FCF8BD00BF3083FF1FC7
:4011800025330000002821DB114BB3F9063098421CDA00291ADB0E4BB3F8DA30994215DA10B51446C0B2C9B24B1C421CDBB2D2B2FFF77AFE012001F0DDFB210A0220FFF732
:4011C00031FEE1B20220FFF72DFE10BD704700BF3083FF1FF8B51E46164BB3F90630834226DD1546134BB3F8DA30994220DA0A44013A934201DC5D1A2DB2C0B2C9B24B1995
:40120000013BDBB20246FFF74FFE370AF6B2012001F0B0FB08E039460220FFF703FE31460220FFF7FFFD25466A1E14B2002DF2D1F8BD00BF3083FF1F2DE9F04F8BB0029099
:40124000039115460493BDF850709DF854A07F4B1A68002A40F09080B3F906300146834240F3F180794BB3F8DA300398984280F2EA800AEB4A0253000B44012B00F1E38075
:4012800000EBCA03012B00F1DE804FF00008894683460595049E4EE0059B03EB830343446B4A134493F8585000243EE015F0010F1BD0BAF1010F09D104EB0B0108EB09000A
:4012C000324609B200B2FFF75DFF2BE01FFA8AF00FFA8AF204FB00B108FB00900096134609B200B2FFF784FE1CE0BE421AD0BAF1010F09D104EB0B0108EB09003A4609B2D0
:4013000000B2FFF73FFF0DE01FFA8AF00FFA8AF204FB00B108FB00900097134609B200B2FFF766FE013464B26D08072CBEDD08F101084FFA88F8B8F1040FADDD049BBB428D
:4013400000F08180BAF1010F08D1029805303B460822039900B2FFF73DFF74E01FFA8AF303EB8300029A10440097DB005246039900B2FFF73DFE66E0137AEB1ADBB25068FD
:4013800000EBC301D2F800B030F8337091F80280CB78079391F90530089391F906200992BAF1010F04D91BB2059313B2069302E000230693059300231C46994640E05E1C1D
:4013C000F6B213F0070F03D17B1C1BF807409FB214F0800F27D0BAF1010F0DD1099B039A99184944089B029A98182844049A09B200B2FFF7C7FE16E0059B58191FFA8AF3B6
:40140000069A02EB09010FFA8AFE039A01FB0321029A00FB0320049B00937246734609B200B2FFF7E5FD6400E4B20135EDB2334600E000254545C2D309F101095FFA89F9DA
:40144000079A9145F5D30BB0BDE8F08F3083FF1F2433000010B50446013001F0BFFB064801F0BCFB04F1110001F0B8FB034801F0B5FB002010BD00BFA0380000E432000015
:4014800030B4002309E003EB4305AC00045D944201D118B205E001339BB28B42F3D34FF0FF3030BC704700BF2DE9F04F85B005468A4690F80E800468424681882046FFF7AA
:4014C000DFFFB0F1FF3F63D000EB400293001A4623445E681EB11444B4F8089001E04FF00009002E57D0B9F1000F57D0474600240294019447E0A34604EB44029300F35CE3
:4015000053453ED104EB4402930033445B6813B19847012835D14FEA4B0202EB0B018B00194633449B6803930B4633445F78B5F80CC00023DDF808B016E0A968184603EB9C
:40154000430E4FEA8E0296468A5C904502D18E44DEF808B0974205D100EB4000820011444A68019201339BB26345E6D35B46CDF808B003B1D847039B03B19847019B03B13D
:4015800098470134A4B2A145B5D8AF73002007E06FF0040004E06FF0160001E06FF0160005B0BDE8F08F00BFF8B506460F46154600240DE006EBC4039A88B5FBF2F302FB55
:4015C00013531BB956F83430002098470134A4B2BC42EFD30020F8BDF8B505460E461746002409E005EBC4035868384202D055F8343098470134A4B2B442F3D30020F8BDBB
:4016000010B5044600230370437001F021F9012803D001F02DF9012804D10023237001226270A37001F01CF9012803D001F028F9012806D10123237000236370A378013368
:40164000A370002010BD00BF2DE9F04182B004464379012B28D1C379012B02D140F6214700E00027A679354DA5FB0635ED084FF00308CDF8048000974FF6FF7305F13002AD
:401680003C210A20FFF7D8FD05EB85056A00B21AD2B23032CDF8048000974FF6FF73D2B23C211E20FFF7C8FD2378012B28D1A378012B02D140F6214700E0002766781F4D08
:4016C000A5FB0635ED084FF00308CDF8048000974FF6FF7305F130023C215020FFF7ACFD05EB85056A00B21AD2B23032CDF8048000974FF6FF73D2B23C216420FFF79CFD84
:40170000A37A012B0BD103230193002300934FF6FF733A223C213720FFF78EFD0AE003230193002300934FF6FF7320223C213720FFF782FD002002B0BDE8F081CDCCCCCC37
:40174000FEE700BFF0B40022174611E050F82760F3B226F0FF0608E001EB420511F812406D78A5550132013BDBB2002BF4D101371E2FEBD9F0BC7047064B1B78DBB203F0D1
:401780000701054A11701B09013213704422034B1A707047CF0100496E5800407658004008B50A46002101F0CAFC08BD38B50024284B1C80582202331A70192502331D8042
:4017C0001823254A137041F2BF2102321180023213700222214B1A7008224FF040231A70032103F5007319701D4B1B78DBB21D490B701D4B1A8041F25122023B1A800CE0D1
:401800001A4B1B7803F0010343EA440404F003044FF4F07001F040FB013D0DB1032CEFD115B90320FFF78CFF114B4FF480721A8007221A7000220F490A7048200231087038
:401840001A700222033B1A700B4A137843F00703137038BD80400040864000400043004008010049A146004022420040254200400440004006400040A243004008B501F033
:4018800053FC08BD38B572B6364A137843F00403137000240CE0344D630019194A0011462A44084691882858FFF77AFF0134E4B2092CF0D900240CE02B48A20011194B0049
:4018C0000344B3F84420196CD86BFFF7D7FF0134E4B2012CF0D925494FF09040FFF732FF234A137843F0020313701032137843F0020313701F4C237843F040032370A2F5B8
:401900008632513A137843F01003137008221A491A48FFF7B3FF0A2219491A48FFF7AEFF082219491948FFF7A9FF082218491948FFF7A4FF184A137843F008031370174DC4
:4019400061232B70FFF732FF81232B700122144B1A70FFF711FF0E2221461248FFF78EFF38BD00BFE84600402C3900007C00004803500140A0430040EC050048025100408E
:40198000F4050048C051004000060048125100400806004832510040224300400048004004000840B043004008B501F091FB03680C2B00D1FEE7FEE708B5104E104D16E0FA
:4019C00029686B68AC68002204E051F8040B43F8040B0432A242F8D1E868002203E0002143F8041B04328242F9D11035013E002EE6D101F073FBFEF797FBFEE7010000001B
:401A0000103D000008B5104A104B1A60104A136843F40073136000230AE0032B03D80D4A52F8231000E00C490C4A42F8231001332F2BF2D90A4B1A780A4B1A70074A0A4BD4
:401A40001A60FFF71FFF08BD0004FA050CED00E014ED00E000000000A91900000080FF1FBC760040C080FF1F08ED00E038B5EFF3108572B604284ED82D4B53F82030002B35
:401A80004BD02B4A013B42F820302A4B53F82030032B07D10222274B43F820200022264B43F8202000F0EEFC244B1B68002B36D1234B1C6800F0C4FCB0F1FF3F31D0214BAF
:401AC00053F82020204B1B689A422CD9B4F1FF3F03D00221174A42F824101C4A52F820201343194A13600022124B43F8202000F063FC174B53F820304BB10024144B43F8C8
:401B0000204040F0004001F051F920460CE001F04DF9002008E0032006E0042004E0002002E0002000E0002085F3108838BD00BF9081FF1F3C82FF1F4C84FF1F8884FF1FEF
:401B40002482FF1F983B00006884FF1F683B00002484FF1FEFF3108272B603283CD803012249CB58002B39D010B400EB40018B001F49CC581F4B03EBC4035968884209D12F
:401B80001A4B03EB0013D9681A4B03EBC40461600DE01946154B03EB0113DB689842F8D1124B03EB0014E46803EB0111CC600F4B03EB0013DC68B4F1FF3F08D00B4B03EB99
:401BC0000011896803EB04139C6821449960030100200649C85005E0032000E0052082F31088704782F3108810BC7047888CFF1FD83A00002C81FF1FF8B5EFF3108472B636
:401C0000032825D800EB4005AB00184DEB5803EB4306B500164E75598D421BD34AB103EB43039E00124B1E44B3689A4214D3954214D3A9B103010F4DEB589BB90301EE189B
:401C40000127EF507260013900F086F800200AE0032008E0082006E0082004E0082002E0082000E0072084F31088F8BDD83A0000283B0000888CFF1F18B108B5C368984720
:401C800008BD704708B508B1406800E00020042816D80C4B53F8203093B10A4A013B42F82030094B53F82030032B07D10222064B43F820200022054B43F8202000F0E2FB81
:401CC00008BD00BF9081FF1F3C82FF1F4C84FF1F18B1034640689B6801E00023184604281DD80F4A52F82020CAB10E4A52F82010032914D010B50C4C54F820201A4344F8A5
:401D000020200A4A52F82020134207D0012905D10222044B43F8202000F0B4FB10BD7047403B00003C82FF1F4C84FF1F3884FF1F80B108B50378012B06D013B1032B06D0F6
:401D400008BDFFF79FFF08BDFFF7C2FF08BDFFF793FF08BD704700BF30B400EB40029300214AD258214B03EBC2035C68B4F1FF3F04D11E4B03EBC20250602DE01C4B03EB05
:401D800004139B6899420AD2184D05EBC2025060174A02EB04125B1A93601DE01C46144B03EB04139A68891ADB68B3F1FF3F05D00F4A02EB031292689142EFD2B3F1FF3F90
:401DC00005D00B4A02EB031295686D1A9560084A02EB0414E0601C46054B03EB00108160C46030BC704700BFD83A00002C81FF1F888CFF1F38B5394A02EBC0035C6852F853
:401E00003030013342F8303000EB40018A0034498A58934203D90022304B43F83020B4F1FF3F59D02F4B03EB04139B68002B4ED1214600E019462B4B03EB0113DB68B3F1A9
:401E4000FF3F05D0274A02EB03129268002AF1D0244A02EB01114FF0FF32CA601F4A02EBC0004360B3F1FF3F07D01E4A02EB03139A68013A9A6000E02C4604EB44029300C2
:401E8000194A13441B7A7BB904EB44029300164A13445A68154B53F8223003EB83039A0013481044FFF744FF0E4B03EB0413DD68596821B101392046FFF74EFF03E024014A
:401EC0000022084B1A51B5F1FF3FD5D138BD054A02EB0414013BA36038BD00BF2C81FF1F283B0000888CFF1FD83A0000183B0000883A000038B5EFF3108572B6002838D1F8
:401F0000FFF778FF204B1B68002B34D11F4B1C6800F096FAB0F1FF3F2FD01D4B53F820201C4B1B689A422AD9B4F1FF3F03D00221194A42F82410194A52F820201343154AC2
:401F400013600022144B43F8202000F035FA144B53F820304BB10024114B43F8204040F0004000F023FF20460AE000F01FFF002006E0032004E0002002E0002000E00020B3
:401F800085F3108838BD00BF8884FF1F2482FF1F983B00006884FF1F3C82FF1F683B00002484FF1FEFF3108372B6114A1168114A126882B9B1F1FF3F0FD00F4A52F8212029
:401FC0006AB110B40D4C54F8212022EA000044F82100002007E0022002E0022000E0012083F31088704783F3108810BC704700BF2482FF1F8884FF1F403B00004C84FF1F19
:4020000004280FD80B4B53F820306BB10A4B53F82030032B0AD059B1084B53F820300B60002070470320704701207047072070470E207047403B00003C82FF1F4C84FF1F94
:4020400038B5EFF3108472B6042853D8324B53F82030002B50D0314B53F82030032B4DD02F4D55F820200A4345F820202D4A52F82020114244D0012B44D10222274B43F86C
:40208000202000F0FFF9284B1B68002B3CD1274B1D6800F0D5F9B0F1FF3F37D0244B53F82020244B1B689A4232D9B5F1FF3F03D002211A4A42F825101F4A52F82020134366
:4020C0001C4A13600022154B43F8202000F074F91A4B53F820304BB10025184B43F8205040F0004000F062FE284612E000F05EFE00200EE003200CE001200AE0072008E0DB
:40210000002006E0002004E0002002E0002000E0002084F3108838BD403B00003C82FF1F4C84FF1F3884FF1F8884FF1F2482FF1F983B00006884FF1F683B00002484FF1F1C
:4021400038B5EFF3108472B63A4B1D683A4B1B68002B63D1B5F1FF3F62D0384B53F82530B3F1FF3F5ED1364B53F82530002B5BD0344B53F82530034258D1334B43F8250037
:402180000122324B43F82520314B53F8250031490B6823EA00030B602F4B43F825202F4B53F82520234B1A6000F04AF9B0F1FF3F06D02B4B53F82020264B1B689A420DD821
:4021C0001C4B1868B0F1FF3F03D000221F4B43F8202040F0004000F0E9FD1AE000211B4A42F820101A4A52F820201343194A136000F0E2F8184B53F8203043B10022164BB6
:4022000043F8202040F0004000F0D0FD01E000F0CDFD00200C4B43F8250008E0022006E0022004E0062002E0012000E0002084F3108838BD2482FF1F8884FF1F4081FF1F94
:40224000403B00004C84FF1F3884FF1F3C82FF1F683B00006884FF1F2484FF1F2882FF1F983B000008B500F0A7F8084B53F8203043B10022054B43F8202040F00040044B57
:40228000186008BD024B186008BD00BF2484FF1F8C84FF1F10B500F0D3F8124B1B68B0F1FF3F1AD0104A52F82010104A1268914213D9B3F1FF3F03D002240D4941F8234047
:4022C00000210B4B43F820100A4B53F820301A43064B1A60FFF7C6FF10BD43F00043064A136010BD2482FF1F983B00006884FF1F3C82FF1F683B00008C84FF1F034B1B6837
:4023000013B10022014B1A60704700BF7C84FF1F204B1A68204B1968EFF3108372B6022829D830B41D4C54F8204044BB51B9B2F1FF3F26D01A4C54F822501A4C54F82040AD
:40234000A54220D809BB184951F82250174C44F8205041F822000121104A42F8201014490C68144A42F820400E4A52F8202022430A6000200AE0032083F3108870470120C1
:4023800004E0012002E0012000E0012083F3108830BC70472482FF1F8884FF1F1884FF1F983B0000343B00004081FF1F3481FF1F6884FF1FC88CFF1FF0B4184B19880B0A8E
:4023C000174AD356B3F1FF3F01D1535601E008335BB2144D55F82320134850F82200134E56F8224045F82340114D2F6846F822702A60B4F1FF3F09D10E4A42F82340012242
:4024000002FA03F321EA0301044B19800A4B19680A4A42F820101860F0BC70476484FF1F7C390000E481FF1F608CFF1F6881FF1F6084FF1FA481FF1F2482FF1F2882FF1F24
:402440000C4B1A88130A0C49CB56B3F1FF3F01D18B5601E008335BB2B3F1FF3F06D0074A52F82320064B53F8220070474FF0FF30704700BF6484FF1F7C390000E481FF1FE5
:40248000608CFF1F30B4144B53F82020134C2368134951F823502560124C44F823004FF0FF3441F82340104951F82210A1420AD10E4951F820400E480188214301800D4946
:4024C00041F8223002E0064840F82130064941F8223030BC704700BF7C81FF1F6084FF1F6881FF1F608CFF1FA481FF1F983B00006484FF1FE481FF1F10B150F821007047AE
:402500004FF0FF30704700BF0122014B1A60FEE78484FF1F70B50546124B53F8306000241CE0104B03EBC50321465868FFF7E4FF0D4A52F82030013B42F820300B4B53F892
:402540002030032B07D10222084B43F820200022074B43F82020FFF795FF0134B442E0D370BD00BF7C3A00009081FF1F3C82FF1F4C84FF1F18B908B5FFF7CCFF08BD704756
:40258000194B1A4ADA621A4A9A631A4ADA63EFF3108272B6184B1B6813BB10B5044600F0EFF8164B1C600122134B1A602046FFF7E1FFFFF745FFB0F1FF3F0ED0104B53F82E
:4025C0002030104A11680B43136000220E4B43F82020FFF7F1FE00F0E9FB62B6FFF794FF82F31088072070470080FF1F6D2D0000312D0000910000008484FF1FA494FF1F19
:40260000683B00006884FF1F3C82FF1F08B5EFF3108272B60D4B19680D4B1B6863B90D4B53F82130B3F1FF3F08D14FF0FF300A4B43F82100002002E0022000E0062010B927
:40264000084600F00CFC82F3108808BD2482FF1F8884FF1F4081FF1F5481FF1F70B53C4B1A683C4B1B68EFF3108572B602285BD8394951F82010002958D0384951F8221006
:40268000884255D153B9B2F1FF3F53D0344C54F82260344C54F82040A6424DD8002B4DD1314C54F821402D4941F8224000212A4A42F820102D4A52F820102D4A1160002B0C
:4026C0003ED1234B1C68FFF7BBFEB0F1FF3F39D0234B53F82020264B1B689A4234D9B4F1FF3F03D00221234A42F82410224A52F8202013431E4A136000221E4B43F820208B
:40270000FFF75AFE1D4B53F820304BB100241B4B43F8204040F0004000F048FB204614E000F044FB002010E003200EE005200CE005200AE0012008E0012006E0012004E0A5
:40274000002002E0002000E0002085F3108870BD2482FF1F8884FF1F1884FF1F4081FF1F983B0000343B00003481FF1FC88CFF1F6884FF1F3C82FF1F683B00002484FF1F9D
:4027800038B50D4B1D68EFF3108472B600F0BEFA0A4A136843F07F431360094BAB640121022000F03DF8074A136843F00403136084F3108838BD00BF08ED00E020ED00E008
:4027C000350D000000E100E001BE704710B5044605E0084B186800F05FFBA4F50044B4F5004FF6D8034B586800FB04F000F054FB10BD00BF9482FF1F70B504460E46074B9B
:402800001D681F2802D90020FFF7DEFF04F01F04103455F8240045F8246070BD08ED00E038B504460D46072902D90020FFF7CCFF1F2C02D90020FFF7C7FF04F01F0000F1F3
:40284000604000F564406D01EDB2057038BD00BF024B1878C0F3C000704700BF01510040024B1878C0F30010704700BF01510040024B1878C0F34010704700BF0151004001
:40288000024B1878C0F38000704700BF3151004008B500F009FB0A4A137843F020031370013A137843F0100313700232137843F01003137000F0FCFA00F0E2F808BD00BF1C
:4028C0009A640040014B1878704700BF69640040014B1878704700BF6B640040034B1B7813F0040FFAD0024B18707047696400404A64004008B501E00A4B1B780A4B1B7824
:4029000013F0200FF8D100F0CFFA084B1A7842F001021A701A7802F0FE021A7000F0C8FA08BD00BF5A6400406B6400409A64004008B50F22064B1A70FFF7DCFFFFF7C2FF5F
:40294000FFF7C6FF0023034A13700232137008BD8A6400408964004008B5054B1B7823B9FFF7E6FF0122024B1A70FFF791FF08BD7084FF1F044A137803F0F703C00000F0AE
:402980000800184310707047C0510040044A137803F0EF03000100F0100018431070704730510040084A137843F0010313701032137843F00103137002F64D32137843F0C7
:4029C00001031370704700BFA3430040014B1880704700BF044F0040014B1880704700BF064F0040014B1870704700BF034F004008B5194A137843F00203137002321378D7
:402A000003F08F0343F010031370144B1A7802F0CF021A701A7842F030021A701A7802F0F0021A701A7842F00F021A706420FFF7CDFF0020FFF7D0FF0020FFF7D3FF084AC6
:402A4000137843F00103137002F65E32137843F00103137008BD00BF004F00400B4F0040A343004008B5054B1B7823B9FFF7C0FF0122024B1A70FFF795FF08BD7184FF1FE4
:402A8000054A137843F0010313701032137843F001031370704700BFA243004008B512490020FFF7A9FE07210020FFF7B9FE00220E4B1A7072220E4B1A702022A3F581734C
:402AC0001A700C490120FFF797FE07210120FFF7A7FE0622084B1A70472210331A70022203F5A9731A7008BD012C00007284FF1F89650040992C00002664004010B500F0F2
:402B0000D3F904460E4A137843F020031370A2F58172137843F0100313700A4A0123136009490B7843F010030B70022307490B60136000F0DDF8204600F0BAF910BD00BFB7
:402B40009965004000E100E09865004080E200E008B5054B5B7823B9FFF7A0FF0122024B5A70FFF7CBFF08BD7284FF1F164BD9799B79DBB2994205D25A1E914214BF00226D
:402B8000012204E0CA1A632A14BF00220122002AECD1994207D10D4B1B7813F0040F02D10B4B18707047632900D90021094B58540131054BD971054B1B7813F0020F02D067
:402BC0000222054B1A6070477284FF1F6865004047640040789EFF1F00E200E038B5074B5B782BB938BDFFF7C1FF0134A4B201E005460024285D0028F5D138BD7284FF1F36
:402C00001D4B1B78DBB213F01E0F05D01B4803F01E0201780A43027003F0200303F0FF0233B3174B1978C9B2164B1B78DBB21648C154164B1B7813F0FF0F02D00121144BAF
:402C4000197010490B780133DBB20B700B78DBB2632B02D900210B4B19700A4B1978C9B20C4B1B78DBB2994202D10121074B1970002AC5D1704700BF676400407284FF1F62
:402C8000486400407584FF1FDC9EFF1F7684FF1F7784FF1F7484FF1F13E0104B1B78DBB2632B02D900220D4B1A700C4A1378DBB20B49CB5CDBB20B490B7013780133DBB2C6
:402CC0001370064B1B78DBB2074A1278934204D0064B1B7813F0040FDFD070477884FF1F789EFF1F476400407984FF1F68650040054A137843F0020313701032137843F006
:402D000002031370704700BFA243004018484FF47F0102680A43026016486FF07F4102680A400260704714484FF080510160704772B611484FF000610160FFF7ABFA0F48F2
:402D4000006800F005F958B10C4800684FF080730B4A0C490FB40FB46FF00600004700BF6FF0060062B6004762B600DF08B0704720ED00E01CED00E004ED00E08C84FF1F6C
:402D8000AD2D0000692D0000EFF30880054908600548006880F3088870470248006880F308887047A482FF1F8082FF1F411C8900154A11440968154A136899421AD0F0B4F6
:402DC00044464D4656465F46F0B400B5104C9B002344EFF308851D60116089002144096881F3088802BC8E46F0BCA046A946B246BB46F0BC002806DB00B500F09DF802BC45
:402E00008E46FFF7D3BF7047D43B00006C84FF1F8482FF1FF0B444464D4656465F46F0B400B5EFF3038308B48000174901440968164A0244EFF308831360884714488047B1
:402E400004BC4FF08070024382F3038801BC8646F0BCA046A946B246BB46F0BC704780000A4901440A6882F3088804BC4FF08070024382F3038808BC9E46F0BCA046A946CC
:402E8000B246BB46F0BC7047AC3B0000748CFF1FB92E0000000000000230800803D000BF01380046FCD17047EFF3108072B6704780F31088704700BF10B572B6034B1C68EA
:402EC000204600F00DF82046FFF7C9FF2482FF1F08B5024B1868FFF79DFF08BD2482FF1F10B4104B53F820304FF0FF310BE00E4A52F823200B4941F8202000240B4941F873
:402F0000234019461346B3F1FF3FF0D1B1F1FF3F04D0074B53F82120064B1A60084610BC704700BF4081FF1F3481FF1F1884FF1FC88CFF1F6884FF1F08B562B6FFF7C8FF6C
:402F400072B600F041F8014B186808BD8C84FF1F00280BDA20F000400130054B53F82000044B1B68181A18BF0120704701207047D43B00006C84FF1F054B53F82020054B25
:402F800053F820309A4201D101207047002070479081FF1F543B000008B5FFF70DFA084B53F8203043B10022054B43F8202040F00040044B186008BD024B186008BD00BF8D
:402FC0002484FF1F8C84FF1F38B5364B1C680022354B1A60354A52F82430013342F82430334B53F824502046FFF7C6FF012801D0A54204D103222F4B43F8242003E00222B7
:403000002C4B43F824202C4B53F824102B4A136823EA010313602A4B53F82440214B1C60B5F1FF3F0FD0234B53F82530032B07D10222204B43F825200022224B43F825202F
:403040002846FFF71FFAFFF7FBF9B0F1FF3F0BD1B4F1FF3F03D00022164B43F8242044F00044194B1C6038BD184B53F82020134B1B689A4208D800220E4B43F8242044F070
:403080000044114B1C6038BD00210A4A42F82010094A52F820201343084A1360FFF77CFF38BD00BF2482FF1F7C84FF1F9081FF1F5481FF1F3C82FF1F683B00006884FF1F76
:4030C0002882FF1F4C84FF1F8C84FF1F983B0000014B1868704700BF0883FF1F0E4B70B51E460E4C0025E41AA410A54204D056F8253098470135F8E700F0F8FD084B094C3C
:403100001E46E41AA4100025A54204D056F8253098470135F8E770BDF83C0000F83C0000F83C0000003D000010B5431E0A44914204D011F8014B03F8014FF8E710BD03464C
:403140000244934202D003F8011BFAE770470000000000000300000003000000000000000000000004000000000000000000000005000000000000000000000003000000A1
:4031800003000000E03100000100000004000000BC3100000300000005000000A43100000200000001040000000000006D03000004050000000000006D0300000104000037
:4031C000000000006D03000002050000000000000000000000030000000000006D040000000400000000000095020000030000000000000000000000000000000100000045
:40320000000000000000000002000000000000000000000003000000000000009C32000002000000010000006C32000004000000020000003C3200000400000000000000A2
:40324000000000009906000001020000000000008D0600000202000000000000810600000402000000000000750600000002000000000000610600000101000000000000A2
:403280005506000002010000000000004906000004010000000000003D0600000001000000000000310600000300000000000000B101000045565F4B45594C4546540A0014
:4032C00045565F4B455952494748540A0000000045565F4B455952494748544C4F4E4750524553530A000000A50600000100000001000000090A0000FA000000D90A00009E
:40330000E803000002000000A5090000F4010000050A0000FA000000E106000002000000010002000FB103053C3CB203053C3CB306053C3C053C3CB40103C003280804C173
:4033400001C0C2020D00C3028D2AC4028DEEC5011A3601C0E0100422070A2E30252A28262E3A00010313E10F16060D2D26232727252D3B000104133A01052900000000009B
:40338000003E5B4F5B3E3E6B4F6B3E1C3E7C3E1C183C7E3C181C577D571C1C5E7F5E1C00183C1800FFE7C3E7FF0018241800FFE7DBE7FF30483A060E2629792926407F0528
:4033C0000507407F05253F5A3CE73C5A7F3E1C1C08081C1C3E7F14227F22145F5F005F5F06097F017F006689956A606060606094A2FFA29408047E040810207E201008085A
:403400002A1C08081C2A08081E101010100C1E0C1E0C30383E3830060E3E0E06000000000000005F00000007000700147F147F14242A7F2A122313086462364956205000B5
:4034400008070300001C2241000041221C002A1C7F1C2A08083E080800807030000808080808000060600020100804023E5149453E00427F400072494949462141494D3373
:403480001814127F1027454545393C4A49493141211109073649494936464949291E0000140000004034000000081422411414141414004122140802015909063E415D5954
:4034C0004E7C1211127C7F494949363E414141227F4141413E7F494949417F090909013E414151737F0808087F00417F41002040413F017F081422417F404040407F021C52
:40350000027F7F0408107F3E4141413E7F090909063E4151215E7F09192946264949493203017F01033F4040403F1F2040201F3F4038403F63140814630304780403615990
:40354000494D43007F4141410204081020004141417F04020102044040404040000307080020545478407F284444383844444428384444287F385454541800087E090218E2
:40358000A4A49C787F0804047800447D40002040403D007F1028440000417F40007C047804787C080404783844444438FC1824241818242418FC7C08040408485454542437
:4035C00004043F44243C4040207C1C2040201C3C4030403C44281028444C9090907C4464544C4400083641000000770000004136080002010204023C2623263C1EA1A161D0
:40360000123A4040207A385454555921555579412254547842215554784020545579400C1E5272123955555559395454545939555454580000457C410002457D420001458E
:403640007C407D1211127DF0282528F07C545545002054547C547C0A097F4932494949323A4444443A324A4848303A4141217A3A42402078009DA0A07D3D4242423D3D4034
:4036800040403D3C24FF2424487E4943662B2FFC2F2BFF0929F620C0887E090320545479410000447D413048484A32384040227A007A0A0A727D0D19317D2629292F2826CB
:4036C0002929292630484D4020380808080808080808382F10C8ACBA2F102834FA00007B000008142A142222142A14085500550055AA55AA55AAFF55FF55FF000000FF0092
:40370000101010FF00141414FF001010FF00FF1010F010F0141414FC001414F700FF0000FF00FF1414F404FC141417101F10101F101F1414141F00101010F0000000001F0B
:40374000101010101F10101010F010000000FF101010101010101010FF10000000FF140000FF00FF00001F10170000FC04F414141710171414F404F40000FF00F714141415
:4037800014141414F700F7141414171410101F101F141414F4141010F010F000001F101F0000001F14000000FC140000F010F01010FF10FF141414FF141010101F00000055
:4037C00000F010FFFFFFFFFFF0F0F0F0F0FFFFFF0000000000FFFF0F0F0F0F0F3844443844FC4A4A4A347E02020606027E027E0263554941633844443C04407E201E200637
:40380000027E020299A5E7A5991C2A492A1C4C7201724C304A4D4D303048784830BC625A463D3E494949007E0101017E2A2A2A2A2A44445F444440514A444040444A514091
:403840000000FF0103E080FF000008086B6B083612362436060F090F06000018180000001010003040FF0101001F01011E00191D1712003C3C3C3C000000000054465400B0
:40388000427566666572206F766572666C6F770055415254207374617274656400000000203A2000010000003C010000001801000000000049160000000000000000000097
:4038C0000000000000000000000000000000000001000000020000000000000000000000010000000000000001000000003900000000000000000000010000000100000088
:403900000300000001160000000000000000000000000000000000000000000000000000000000000100000000000000004F00400C00205100401000405100403000F051CE
:403940000040100000000140000A800A0140800500140140000800400140000A004C0140000200500140200060520040640500480600000A01406C0500488000FF00010106
:4039800002020202030303030303030304040404040404040404040404040404050505050505050505050505050505050505050505050505050505050505050506060606EF
:4039C0000606060606060606060606060606060606060606060606060606060606060606060606060606060606060606060606060606060606060606060606060707070743
:403A000007070707070707070707070707070707070707070707070707070707070707070707070707070707070707070707070707070707070707070707070707070707C6
:403A400007070707070707070707070707070707070707070707070707070707070707070707070707070707070707070707070707070707070707070707070701000000A1
:403A8000843A00000000000001000000020000000400000000000000FFFFFFFF01000000040000000800000000000000FFFFFFFF0000000004000000000000000000000038
:403AC000FFFFFFFF01000000020000000200000000000000FFFFFFFF00000000000000000000000000000000010000000000000000000000020000000000000000000000C6
:403B0000030000000000000000000000010000000200000003000000000000000100000002000000030000008038010001000000010000008000000080000000400000007B
:403B400000000000000000000100000001000000010000000100000001000000010000000100000001000000800000000200000080000000400000000400000001000000F6
:403B8000020000000400000008000000000000000100000002000000010000000200000080000000400000000400000051010000AD010000D90C0000810C0000AD0C000002
:403BC000D12E0000D12E0000D12E0000D12E0000D12E0000000000000000000000000000010000000200000003000000616C726D5F3235306D735F696E70757400000000B3
:403C0000616C726D5F317300616C726D5F3235306D735F646973706C61790000616C726D5F627574746F6E50726573736564000065765F6576656E74735F6F6E44617461FC
:403C40000000000065765F427574746F6E735072657373656400000065765F3235306D730000000065765F36303030306D7300007265735F627574746F6E735F4C6F636BE4
:403C8000000000007265735F6576656E74735F4C6F636B007265735F636C6F636B646174615F4C6F636B000074736B5F696E69740000000074736B5F6261636B67726F7543
:403CC0006E64000074736B5F696E70757400000074736B5F636F6E74726F6C0074736B5F646973706C61790043000000F8B500BFF8BC08BC9E4670474D000000051A00008A
:403D0000F8B500BFF8BC08BC9E46704729000000203D0000C880FF1F48020000301C000000000000803100000300000058310000030003001832000003000000F0310000D1
:403D400003000000010000000000000000000000043900000500000000000000D8380000010000003C0100000018010000000000B0380000EC3B0000003C0000083C000007
:403D80001C3C000000000000FFFFFFFFFFFFFFFFFFFFFFFFFFFFFFFFFFFFFFFFFFFFFFFFFFFFFFFFFFFFFFFFFFFFFFFFFFFFFFFFFFFFFFFFFFFFFFFFFFFFFFFFFFFFFFFFE3
:403DC00001000000020000000300000004000000FFFFFFFF00000000010000000700000006000000020000000100000001000000010000000100000001000000FFFFFFFFAC
:403E0000FFFFFFFFFFFFFFFFFFFFFFFFFFFFFFFFFFFFFFFFFFFFFFFFFFFFFFFFFFFFFFFFFFFFFFFFFFFFFFFFFFFFFFFFFFFFFFFFFFFFFFFFFFFFFFFFFFFFFFFFFFFFFFFFC2
:403E4000FFFFFFFFFFFFFFFFFFFFFFFFFFFFFFFFFFFFFFFFFFFFFFFFFFFFFFFFFFFFFFFFFFFFFFFFFFFFFFFFFFFFFFFFFFFFFFFFFFFFFFFFFFFFFFFFFFFFFFFFFFFFFFFF82
:403E8000FFFFFFFFFFFFFFFFFFFFFFFFFFFFFFFFFFFFFFFF0300000003000000030000000300000003000000303C0000443C0000583C0000643C0000703C0000843C00007B
:403EC000943C0000A83C0000B43C0000C43C0000D03C0000DC3C0000789EFF1F00000000388CFF1F509CFF1F7C94FF1F0000E02EC05D00001800000000366E0100000000C4
:403F00000000000000000000000000000000000000000000000000000000000000000000E83C0000000000000000000000000000000000000000000000000000000000005D
:403F40000000000000000000000000000000000000000000000000000000000000000000A882FF1F00000000000000000000000000000000000000000000000000000000F9
:403F80000000000000000000000000000000000000000000000000000000000000000000000000000000000000000000000000000000000000000000000000000000000001
:403FC00000000000000000000000000000000000000000000000000000000000000000000000000000000000000000000000000000000000000000000000000000000000C1
:404000000000000000000000000000000000000000000000000000000000000000000000000000000000000000000000000000000000000000000000000000000000000080
:404040000000000000000000000000000000000000000000000000000000000000000000000000000000000000000000000000000000000000000000000000000000000040
:020000040003F7
:0200000480007A
:40000000024F004002640040026500400103014001050140630601403E070140570801403E090140110A0140320B014004140140061501400F170140401801404D190140C8
:40004000081B01400340014009410140074201400A430140024401400145014001460140014701400748014006490140044C01400C4D0140055001400151014001200A3601
:4000800087388A0F880F89728340A740020C082C0A4314711501160619011C801E13220824712501260E290130C031013230340F380A39023A203E043F014003460449FF47
:4000C0004A074BFF4C404D204EF04F055008580459045A045C015D015F01604061A8624063208220830386208C038E148F2092089413950C960C9771980A9A149D14A1099D
:40010000A215A3D0A510A7ACA813A9DCAA04AB22AD10AF40B010B20FB3E0B420B71FBA08BB08BE11C035C106C5C0C6EBC80EC9FFCAFFCBFFCEF0CF44D00CD418D604D804A2
:40014000D904DA04DB04DC11DD11DF01E6C0EA40EB020086051109200A500E120F011208130115081640184019041A101B201D391E40200121042208278029152A402F18E9
:400180003080320835083720388142104508484049024A094C404F01508051105640580160086280638089028C4099089B20A308A740A908AB20B708C05DC2AEC43ACA6FD6
:4001C000CC6ACE09D042D20CD601D80DE81003010402070108020C020D01100219011A012A0132013301340239083A023E144062410542044401450E460C480549FF4AFF42
:400200004BFF4C624DA04EF04F41500C580459045A045C115D015F016640670269106A306B106D106E106F1280048280845685908609872A880189FC8C848D208FC19007ED
:40024000910492389404980A99FC9A10A084A484A548A732A880AA04AC60B008B1E0B27FB318B480B504B602B703B808BE51BF40D409D804D904DB04DC10DF01008A03086A
:400280000484052006020A580E800F48111412011301172019501A801B081E841F04206021A427202820302033013520384039283A403C043E023F4045A047024D204F48A3
:4002C0005740581059065A8061408A108D409008911492589301981099049A019B089D10A045C0EFC25EC44FCA02CC25CEDED0B0D230D60FD808E0C0845586AA8C208ED0A9
:40030000980E9C339EC4A494A669B40FB6F0B820BA80D440D804DB04DF0100860408054008100A510B080E080F02111413011708180819A01A591B011D401E08200C21A0C1
:40034000231829212B01300831A0320139543B014004424049954B02500852115304614066106712684169546A027301C0ADC2CFC42ECA0DCC0FCE0FD005D20CD878B88034
:40038000BE40D804DF011F4087509720AC01B401EE08840189109001912097209C01A401A804AA80AB20AC08AF80E20AEA04EE08060609010E0410021401260634013501AB
:4003C00036063E103F1054015604580459045B045D105F0180038304840C85188613880289088C0F8DFF8E1093E394139580960C9801993C9A209BC29D109E13A008A1C020
:40040000A404A544A80CA9E7AB18AC1FAD1CAFE1B01CB1C0B40FB51FB620B738BA22BB20D602D712D804D904DB04DC11DD10DF010064024803800408054008240A020D08CE
:400440000E40108012141354170818C219201B011D401E0820042102229023022620282029202B812C042D2030803219330238023A143B403D205A045C015D405E286780CD
:40048000682069206B01708073148502874089088A209008914092449340948495209A409B089C209D209F03A010A210A302A420AB40AF04B532B70AC0AFC237C42FCA0F03
:4004C000CC0FCE2FD6F2D880E4208C209C20A801A908AE80B140B510EC1033113580CC70052008080E1083109D809F11C080C230E22053089210980899209D809F01D4203B
:400500001B089D809F01A708A808AA10B520C610E880EC207004DC01940894089408671085809D80AF01D880E210EA40030887189710C040E210E4408804B404E004E80842
:400540001280740478408E809840A004B040C408DC01DE04E202E80100030A020C0310031C03003F8094000040000000988D0200FC8D0300008D00009A0D0080138D640099
:400580003840C000024200082102D80D9A0000809800020002629814001100221300E0800F700F0F0000A8A0000000045204600000DEF0BC3BFFFFFF2200F00804000000C6
:4005C0000000022004040404000000010000C00040011011C001001140014001000000000000000000000000000000003800000000000000800040BCBC00B400000000002E
:40060000000B0B0000000000041818000800000000000000000000000000000000000000000000000000000000000000000000000000000000000000000000000000000068
:40064000000000000000000000000000000000000000000000000000000000000000000000000000000000000000000000000000000000000000000000000000000000007A
:40068000000000000000000000000000000000000000000000000000000000000000000000000000000000000000000000000000000000000000000000000000000000003A
:4006C00000000000000000000000000000000000000000000000000000000000000000000000000000000000000000000000000000000000000000000000000000000000FA
:4007000000000000000000000000000000000000000000000000000000000000000000000000000000000000000000000000000000000000000000000000000000000000B9
:0200000490006A
:0400000000004005B7
:0200000490105A
:04000000BC90ACAF55
:0200000490303A
:02000000D0A787
:0200000490402A
:4000000000000000000000000000000000000000000000000000000000000000000000000000000000000000000000000000000000000000000000000000000000000000C0
:400040000000000000000000000000000000000000000000000000000000000000000000000000000000000000000000000000000000000000000000000000000000000080
:400080000000000000000000000000000000000000000000000000000000000000000000000000000000000000000000000000000000000000000000000000000000000040
:4000C0000000000000000000000000000000000000000000000000000000000000000000000000000000000000000000000000000000000000000000000000000000000000
:0200000490501A
:0C00000000012E16106900012E2DE110E9
:00000001FF