:400000000080002011000000391C0000391C000008B5044B1A6803F53F5302331A6001F013FE00BFFA46004010B5054C237833B9044B13B10448AFF300800123237010BDBB
:40004000E083FF1F00000000E0330000084B10B51BB108490848AFF300800848036803B910BD074B002BFBD0BDE81040184700BF00000000E483FF1FE0330000C880FF1FA8
:400080000000000008B5002002F07CF808BD00BF684620F007018D4619B572B6EFF311841E4B1B68DBB20F2B10D9103B23F0030202F1604202F564421168DB0003F01803E0
:4000C000E0229A400A4022FA03F306E00F2B03D1134B1B681B0E00E0002383F31188114A136801331360012B01D102F095FF62B6FFF7C8FF72B684F3118802F047FA094A24
:400100001368013B13601BB902F08FFF02F053FF62B6BDE819408546704700BF04ED00E020ED00E07085FF1F08B562B645F6BF52054B1A60054A136843F002031360002055
:4001400002F066FBFBE700BF14E000E010E000E008B502F045FE01F0DDF802F059FC124A136843F005031360FA221146002001F08BFE4FF47A721146032001F085FEFA221D
:400180000121084601F080FE022001F0B7FD032001F0B4FD042001F0B1FD012001F0AEFD02F07CFB08BD00BF10E000E0FEE700BF034B9B7B052B01D10020704701207047DE
:4001C000CC80FF1F30B587B0394B1B6993F82020012A02D1586A02F0E3F9354C03AB94E8070003C323F8022B120C1A70236993F82020012A02D1586A02F078FB9DF80D3062
:4002000001339DF8101093FBF1F201FB1233DBB28DF80D3053B99DF8123001339DF8151093FBF1F201FB12338DF8123001238DF80C308DF811306B4606AA12E9070003C3B6
:4002400023F8022B120C1A70194B1B6993F82020012A02D1586A02F0A3F9154C23469DE8070003C323F8022B120C1A700023E3600223E372236993F82020012A02D1586A8A
:4002800002F034FB0A4B1B695D699B6873B13DB90CE0996855F8240002F01AF8013400E00024034B1B691A699442F2D307B030BDD881FF1F30B587B0334B1B6993F82020D2
:4002C000012A02D1586A02F06BF92F4C03AB94E8070003C323F8022B120C1A70236993F82020012A02D1586A02F000FB9DF81430012B03D18DF813308DF811309DF80F3047
:40030000012B03D18DF80E308DF80C306B4606AA12E9070003C323F8022B120C1A701A4B1B6993F82020012A02D1586A02F038F9154C23469DE8070003C323F8022B120C07
:400340001A700023E3600223E372236993F82020012A02D1586A02F0C9FA0B4B1B695D699B6873B13DB90CE0996855F8240001F0AFFF013400E00024034B1B691A69944229
:40038000F2D307B030BD00BFD881FF1F30B587B03D4B1B6993F82020012A02D1586A02F0FFF8394C03AB94E8070003C323F8022B120C1A70236993F82020012A02D1586A7F
:4003C00002F094FA9DF81430012B0DD19DF8123001339DF8151093FBF1F201FB12338DF8123001238DF811309DF80F30012B0DD19DF80D3001339DF8101093FBF1F201FB6C
:4004000012338DF80D3001238DF80C306B4606AA12E9070003C323F8022B120C1A701A4B1B6993F82020012A02D1586A02F0B8F8154C23469DE8070003C323F8022B120C1F
:400440001A700023E3600223E372236993F82020012A02D1586A02F049FA0B4B1B695D699B6873B13DB90CE0996855F8240001F02FFF013400E00024034B1B691A69944228
:40048000F2D307B030BD00BFD881FF1F30B587B0354B1B6993F82020012A02D1586A02F07FF8314C03AB94E8070003C323F8022B120C1A70236993F82020012A02D1586A0E
:4004C00002F014FA9DF81430012B05D100238DF8133001238DF811309DF80F30012B05D100238DF80E3001238DF80C306B4606AA12E9070003C323F8022B120C1A701A4B2D
:400500001B6993F82020012A02D1586A02F048F8154C23469DE8070003C323F8022B120C1A700023E3600223E372236993F82020012A02D1586A02F0D9F90B4B1B695D6913
:400540009B6873B13DB90CE0996855F8240001F0BFFE013400E00024034B1B691A699442F2D307B030BD00BFD881FF1F70B586B006460D46344B1B6993F82020012A02D189
:40058000586A02F00DF8304C03AB94E8070003C323F8022B120C1A70236993F82020012A02D1586A02F0A2F92EB901238DF8143000238DF80F30012E05D100238DF81430CF
:4005C00001238DF80F306B4606AA12E9070003C323F8022B120C1A701B4B1B6993F82020012A02D1586A01F0DBFF174C23469DE8070003C323F8022B120C1A700023E36046
:400600000223E372236993F82020012A02D1586A02F06CF90C4B1B695E699B6873B13EB90CE0996856F8240001F052FE013400E00024054B1B691A699442F2D3294603488D
:4006400001F06CF806B070BDD881FF1FCC80FF1F08B500210846FFF789FF08BD08B504210020FFF783FF08BD08B502210020FFF77DFF08BD08B501210020FFF777FF08BD4C
:4006800008B500210846FFF771FF00210120FFF76DFF08BD08B504210120FFF767FF08BD08B502210120FFF761FF08BD08B501210846FFF75BFF08BD08B500210120FFF7C8
:4006C00055FF08BD10B5B6B0254BD3F8D83093F82020012A02D1586A01F062FF204CD022214602A802F068FED4F8D83093F82020012A02D1586A02F0F9F8359C2068B0F193
:40070000FF3F01D001F04CFFE368E3B1013BE36000230EE061696268895C0DF10702D154626801322069B2FBF0F100FB112262600133002BEED02068B0F1FF3F06D002F00A
:40074000D5F8002303E06FF0080300E000232BB99DF80710034800F0E1FFCEE736B010BDFC80FF1FDC80FF1F30B5ADF5557DAD4B9A681368002B56D0AA4B1B68ADF8AC31F9
:400780001B0C8DF8AE3113686BA89847002834D16B9BADF804301B0C8DF80630A14B9B6893F82020012A02D1586A01F0F9FE9D4B019A1A80120C9A7000225A600222DA7062
:4007C0009B6893F82020012A02D1586A02F08EF8944B9B685D699B682BB33DB923E0996855F8240001F074FD013400E000248D4B9B681A699442F2D315E08A4B0322DA7032
:400800009B68DD69DB6873B13DB90CE0D96855F8240001F05DFD013400E00024814B9B689A699442F2D37F4B9B6893F82020012A02D1586A01F0B4FE7A4A1368ADF84C3325
:400840001B0C8DF84E33936893F82020012A02D1586A02F04BF8744BD3F8D83093F82020012A02D1586A01F09BFE6F4CD02221469FA802F0A1FDD4F8D83093F82020012A34
:4008800002D1586A02F032F89DF84D33012B68D100238DF8AC31D29C2068B0F1FF3F01D001F07EFEE36801332269934218D8E36000230DE06169A2686BA8C05C8854A2686A
:4008C00001322069B2FBF0F100FB1122A2600133002BEFD02068B0F1FF3F01D002F006F8D0229FA903A802F067FD4F4BD3F8D83093F82020012A02D1586A01F051FE4A4C2F
:40090000D02203A9204602F057FD0023C4F8D430022384F8D030D4F8D83093F82020012A02D1586A01F0E2FF3F4BD3F8D8305D699B687BB13DB90DE0996855F8240001F020
:40094000C7FC013400E00024374BD3F8D8301A699442F1D3354802F089FA022001F042FA1AE1002B40F018819DF84C33002B40F013819DF84E33132B6CD801238DF8AC31B8
:40098000D29C2068B0F1FF3F01D001F009FEE36801332269934218D8E36000230DE06169A2686BA8C05C8854A26801322069B2FBF0F100FB1122A2600133002BEFD020686E
:4009C000B0F1FF3F01D001F091FFD0229FA937A802F0F2FC144BD3F8D83093F82020012A02D1586A01F0DCFD0F4CD02237A9204602F0E2FC0023C4F8D430022384F8D0305F
:400A0000D4F8D83093F82020012A02D1586A01F06DFF054BD3F8D8305D699B68B3B175B914E000BFF080FF1FFC80FF1F44350000996855F8240001F04BFC013400E0002445
:400A4000574BD3F8D8301A699442F1D3554802F00DFA9EE0132B40F29C8002238DF8DC30D29C2068B0F1FF3F01D001F099FDE36801332269934218D8E36000230DE0616975
:400A8000A26837A8C05C8854A26801322069B2FBF0F100FB1122A2600133002BEFD02068B0F1FF3F01D001F021FFD0229FA96BA802F082FC3A4BD3F8D83093F82020012A5F
:400AC00002D1586A01F06CFD354CD0226BA9204602F072FC0023C4F8D430022384F8D030D4F8D83093F82020012A02D1586A01F0FDFE2B4BD3F8D8305D699B687BB13DB9B7
:400B00000DE0996855F8240001F0E2FB013400E00024234BD3F8D8301A699442F1D3224802F0A4F900238DF84E33D39BADF808301B0C8DF80A301D4B9B6893F82020012A3D
:400B400002D1586A01F02CFD184B029A1A80120C9A7000225A600222DA709B6893F82020012A02D1586A01F0C1FE104B9B685D699B6873B13DB90CE0996855F8240001F0ED
:400B8000A7FB013400E00024084B9B681A699442F2D3022001F026F90DF5557D30BD00BFFC80FF1F5835000068350000F080FF1F704700BF364B1B78012B68D130B5E9B075
:400BC000344BD3F8D83093F82020012A02D1586A01F0E6FC2F4CD0222146684602F0ECFBD4F8D83093F82020012A02D1586A01F07DFE294B01221A6000225A609A60DA60FE
:400C00000DF101025A61C8221A613393D02269460DEB020002F0D0FB1E4BD3F8D83093F82020012A02D1586A01F0BAFC194CD0220DEB0201204602F0BFFB0023C4F8D430C0
:400C4000022384F8D030D4F8D83093F82020012A02D1586A01F04AFE0E4BD3F8D8305D699B687BB13DB90DE0996855F8240001F02FFB013400E00024064BD3F8D8301A69CA
:400C80009442F1D30022024B1A7069B030BD7047EC80FF1FFC80FF1FFC83FF1F30B587B0314BDB7A022B03D12F4803695B6898472D4B1B6993F82020012A02D1586A01F038
:400CC0006FFC294C03AB94E8070003C323F8022B120C1A70236993F82020012A02D1586A01F004FE00238DF811308DF80C306B4606AA12E9070003C323F8022B120C1A7060
:400D0000194B1B6993F82020012A02D1586A01F047FC154C23469DE8070003C323F8022B120C1A700023E3600223E372236993F82020012A02D1586A01F0D8FD0A4B1B696A
:400D40005D699B6873B13DB90CE0996855F8240001F0BEFA013400E00024034B1B691A699442F2D307B030BDD881FF1F30B58BB0664B1B78012B5BD1654B1B6993F820208A
:400D8000012A02D1586A01F00BFC614C04AB94E8070003C323F8022B120C1A70236993F82020012A02D1586A01F0A0FD01238DF815308DF8103001AB04AA07CA03C323F882
:400DC000022B120C1A70524B1B6993F82020012A02D1586A01F0E4FB4D4C234601AA07CA03C323F8022B120C1A700023E3600223E372236993F82020012A02D1586A01F086
:400E000075FD434B1B695D699B6873B13DB90CE0996855F8240001F05BFA013400E000243B4B1B691A699442F2D30022374B1A70374B1B6993F82020012A02D1586A01F096
:400E4000AFFB334C07AB94E8070003C323F8022B120C1A70236993F82020012A02D1586A01F044FD9DF8233043B99DF81E302BB99DF82630DB438DF8263002E001238DF8FB
:400E8000263004AB0AAA12E9070003C323F8022B120C1A701E4B1B6993F82020012A02D1586A01F07DFB1A4C234604AA07CA03C323F8022B120C1A700023E3600223E372FC
:400EC000236993F82020012A02D1586A01F00EFD0F4B1B695D699B6873B13DB90CE0996855F8240001F0F4F9013400E00024084B1B691A699442F2D3054BDB7A022B03D10E
:400F0000034803695B6898470BB030BDED80FF1FD881FF1F00B583B000230193012001F057FA01A9032001F0B3F9019801F082F9019A0121014800F089FCEFE78035000037
:400F400010B5084C22680221074800F067FC2368FA33236013F5807F01D90022226001F09DFC10BD1484FF1F8C35000000B583B0002301930E2001F02BFA01A9022001F0DB
:400F800087F9019801F056F9019A0321014800F05DFCEFE7A035000008B532221146022000F072FF08BD00BF684620F007018D4619B572B6EFF311841E4B1B68DBB20F2BB4
:400FC00010D9103B23F0030202F1604202F564421168DB0003F01803E0229A400A4022FA03F306E00F2B03D1134B1B681B0E00E0002383F31188114A136801331360012B20
:4010000001D102F009F862B6FFF7C6FF72B684F3118801F0BBFA094A1368013B13601BB902F003F801F0C7FF62B6BDE819408546704700BF04ED00E020ED00E07085FF1F1D
:4010400038B5134B988908B319461C89631C9BB2104AA2FB03525209642505FB12330B810138888101EB44018B7B13B1012B04D006E0002001F0C6FD02E0012001F0C2FDCE
:40108000034B03EB4404E07B01F070FD38BD00BF1884FF1F1F85EB5130B5ABB01B4B9B89632B17D92AAD032305F8A83D184B1868CDF80100174C0FCCCDF81100CDF81510D7
:4010C000CDF81920CDF81D30284600F0FDFA6FF0070019E00D4D6C89621C92B205EB4404A073E1730C49A1FB02014909642000FB11226A8101339BB2AB81012B03D1FFF7F6
:401100009FFF002000E000202BB030BD1884FF1F143B0000183B00001F85EB512DE9F04180460E4617461D462A210020FFF7B4FF00210120FFF7B0FF194C94F8D610414475
:40114000C9B20120FFF7A8FF00210120FFF7A4FF94F8D6103944C9B20120FFF79DFF2B210020FFF799FF00210120FFF795FF94F8D7103144C9B20120FFF78EFF002101202F
:40118000FFF78AFF94F8D7102944C9B20120FFF783FF2C210020FFF77FFFBDE8F08100BF1884FF1F10B5044636210020FFF774FF04F003002A4B83F8D80003284ED8DFE886
:4011C00000F00215283BC2210120FFF765FF244BA022A3F8DA208022DA8093F8DC2083F8D62093F8DD2083F8D72010BDA2210120FFF752FF1A4BA022DA808022A3F8DA20C3
:4012000093F8DC2083F8D72093F8DD2083F8D62010BD08210120FFF73FFF114BA022A3F8DA208022DA8093F8DC2083F8D62093F8DD2083F8D72010BD62210120FFF72CFF3E
:40124000074BA022DA808022A3F8DA2093F8DC2083F8D72093F8DD2083F8D62010BD00BF1884FF1F2DE9F0411F46BDF818501F4BB3F90630834236DD90461C4AB2F8DA20C4
:40128000914230DA00EB0804013C9C4202DB1B1A0FFA83F87B18013B9A4201DC571A3FB2C0B2C9B2CB19013B00EB0802013ADBB2D2B2FFF733FF2E0AEDB2012001F0A2FCC2
:4012C0000FE031460220FFF7E7FE29460220FFF7E3FE013C24B200E04446002CF1DC013F3FB2002FF8DCBDE8F08100BF1884FF1F00B583B0064AB2F9DA30B2F9062000909C
:4013000000210846FFF7AEFF03B05DF804FB00BF1884FF1FF8B5364B8022DA80A022A3F8DA20002483F8D840A3F8DE40A3F8E04001251D714FF6FF72A3F8E220A3F8E440A9
:401340005D711C6083F8DD4083F8DC4083F8D64083F8D7401C815C819C8101F045FC284601F05CFC642001F079FB204601F056FC642001F073FB284601F050FC142001F00C
:401380006DFB29462046FFF787FE322001F066FB11212046FFF780FE782001F05FFB0F22144D14E02C4614F8021B0020FFF774FE6A78254606E06E1C29780120FFF76CFE5A
:4013C00022463546531EDCB2002AF4D13A46531EDFB2002AE6D10220FFF7E4FE0020FFF787FF01F087FC642001F03EFCF8BD00BF1884FF1FBD350000002821DB114BB3F9B4
:40140000063098421CDA00291ADB0E4BB3F8DA30994215DA10B51446C0B2C9B24B1C421CDBB2D2B2FFF77AFE012001F0EBFB210A0220FFF731FEE1B20220FFF72DFE10BD53
:40144000704700BF1884FF1FF8B51E46164BB3F90630834226DD1546134BB3F8DA30994220DA0A44013A934201DC5D1A2DB2C0B2C9B24B19013BDBB20246FFF74FFE370A66
:40148000F6B2012001F0BEFB08E039460220FFF703FE31460220FFF7FFFD25466A1E14B2002DF2D1F8BD00BF1884FF1F2DE9F04F8BB00290039115460493BDF850709DF825
:4014C00054A07F4B1A68002A40F09080B3F906300146834240F3F180794BB3F8DA300398984280F2EA800AEB4A0253000B44012B00F1E38000EBCA03012B00F1DE804FF011
:401500000008894683460595049E4EE0059B03EB830343446B4A134493F8585000243EE015F0010F1BD0BAF1010F09D104EB0B0108EB0900324609B200B2FFF75DFF2BE0B7
:401540001FFA8AF00FFA8AF204FB00B108FB00900096134609B200B2FFF784FE1CE0BE421AD0BAF1010F09D104EB0B0108EB09003A4609B200B2FFF73FFF0DE01FFA8AF029
:401580000FFA8AF204FB00B108FB00900097134609B200B2FFF766FE013464B26D08072CBEDD08F101084FFA88F8B8F1040FADDD049BBB4200F08180BAF1010F08D1029852
:4015C00005303B460822039900B2FFF73DFF74E01FFA8AF303EB8300029A10440097DB005246039900B2FFF73DFE66E0137AEB1ADBB2506800EBC301D2F800B030F83370A6
:4016000091F80280CB78079391F90530089391F906200992BAF1010F04D91BB2059313B2069302E000230693059300231C46994640E05E1CF6B213F0070F03D17B1C1BF84F
:4016400007409FB214F0800F27D0BAF1010F0DD1099B039A99184944089B029A98182844049A09B200B2FFF7C7FE16E0059B58191FFA8AF3069A02EB09010FFA8AFE039AAD
:4016800001FB0321029A00FB0320049B00937246734609B200B2FFF7E5FD6400E4B20135EDB2334600E000254545C2D309F101095FFA89F9079A9145F5D30BB0BDE8F08FFF
:4016C0001884FF1FBC35000010B50446013001F0CDFB064801F0CAFB04F1110001F0C6FB034801F0C3FB002010BD00BF383B00007C35000030B4002309E003EB4305AC00EE
:40170000045D944201D118B205E001339BB28B42F3D34FF0FF3030BC704700BF2DE9F04F85B005468A4690F80E800468424681882046FFF7DFFFB0F1FF3F63D000EB4002DC
:4017400093001A4623445E681EB11444B4F8089001E04FF00009002E57D0B9F1000F57D0474600240294019447E0A34604EB44029300F35C53453ED104EB44029300334497
:401780005B6813B19847012835D14FEA4B0202EB0B018B00194633449B6803930B4633445F78B5F80CC00023DDF808B016E0A968184603EB430E4FEA8E0296468A5C90454F
:4017C00002D18E44DEF808B0974205D100EB4000820011444A68019201339BB26345E6D35B46CDF808B003B1D847039B03B19847019B03B198470134A4B2A145B5D8AF736D
:40180000002007E06FF0040004E06FF0160001E06FF0160005B0BDE8F08F00BFF8B506460F46154600240DE006EBC4039A88B5FBF2F302FB13531BB956F8343000209847E6
:401840000134A4B2BC42EFD30020F8BDF8B505460E461746002409E005EBC4035868384202D055F8343098470134A4B2B442F3D30020F8BD10B5044600230370437001F0DA
:401880002FF9012803D001F03BF9012804D10023237001226270A37001F02AF9012803D001F036F9012806D10123237000236370A3780133A370002010BD00BF2DE9F043EF
:4018C00083B004464379012B2FD1C379012B02D14FF6FF7801E04FF00008012B01D1002701E04FF6FF77A679384DA5FB0635ED084FF00309CDF80490CDF800803B4605F1CF
:4019000030023C210A20FFF7D1FD05EB85056A00B21AD2B23032CDF80490CDF800803B46D2B23C211E20FFF7C1FD2378012B2FD1A378012B02D14FF6FF7801E04FF00008DD
:40194000012B01D1002701E04FF6FF7766781F4DA5FB0635ED084FF00309CDF80490CDF800803B4605F130023C215020FFF79EFD05EB85056A00B21AD2B23032CDF80490AD
:40198000CDF800803B46D2B23C216420FFF78EFDA37A012B0BD103230193002300934FF6FF733A223C213720FFF780FD0AE003230193002300934FF6FF7320223C213720A5
:4019C000FFF774FD002003B0BDE8F083CDCCCCCCFEE700BFF0B40022174611E050F82760F3B226F0FF0608E001EB420511F812406D78A5550132013BDBB2002BF4D10137A4
:401A00001E2FEBD9F0BC7047064B1B78DBB203F00701054A11701B09013213704422034B1A707047CF0100496E5800407658004008B50A46002101F0CAFC08BD38B500243F
:401A4000284B1C80582202331A70192502331D801823254A137041F2BF2102321180023213700222214B1A7008224FF040231A70032103F5007319701D4B1B78DBB21D49DC
:401A80000B701D4B1A8041F25122023B1A800CE01A4B1B7803F0010343EA440404F003044FF4F07001F040FB013D0DB1032CEFD115B90320FFF78CFF114B4FF480721A808A
:401AC00007221A7000220F490A704820023108701A700222033B1A700B4A137843F00703137038BD80400040864000400043004008010049A14600402242004025420040D4
:401B00000440004006400040A243004008B501F053FC08BD38B572B6364A137843F00403137000240CE0344D630019194A0011462A44084691882858FFF77AFF0134E4B281
:401B4000092CF0D900240CE02B48A20011194B000344B3F84420196CD86BFFF7D7FF0134E4B2012CF0D925494FF09040FFF732FF234A137843F0020313701032137843F0CB
:401B8000020313701F4C237843F040032370A2F58632513A137843F01003137008221A491A48FFF7B3FF0A2219491A48FFF7AEFF082219491948FFF7A9FF082218491948BF
:401BC000FFF7A4FF184A137843F008031370174D61232B70FFF732FF81232B700122144B1A70FFF711FF0E2221461248FFF78EFF38BD00BFE8460040C43B00007C0000484A
:401C000003500140A0430040EC05004802510040F4050048C051004000060048125100400806004832510040224300400048004004000840B043004008B501F091FB036834
:401C40000C2B00D1FEE7FEE708B5104E104D16E029686B68AC68002204E051F8040B43F8040B0432A242F8D1E868002203E0002143F8041B04328242F9D11035013E002EDB
:401C8000E6D101F073FBFEF74FFAFEE701000000AC3F000008B5104A104B1A60104A136843F40073136000230AE0032B03D80D4A52F8231000E00C490C4A42F8231001330B
:401CC0002F2BF2D90A4B1A780A4B1A70074A0A4B1A60FFF71FFF08BD0004FA050CED00E014ED00E000000000391C00000080FF1FBC760040C080FF1F08ED00E038B5EFF3DC
:401D0000108572B604284ED82D4B53F82030002B4BD02B4A013B42F820302A4B53F82030032B07D10222274B43F820200022264B43F8202000F0EEFC244B1B68002B36D1CD
:401D4000234B1C6800F0C4FCB0F1FF3F31D0214B53F82020204B1B689A422CD9B4F1FF3F03D00221174A42F824101C4A52F820201343194A13600022124B43F8202000F06D
:401D800063FC174B53F820304BB10024144B43F8204040F0004001F051F920460CE001F04DF9002008E0032006E0042004E0002002E0002000E0002085F3108838BD00BF7A
:401DC0006082FF1F0C83FF1F3485FF1F7085FF1FF482FF1F303E00005085FF1F003E00000C85FF1FEFF3108272B603283CD803012249CB58002B39D010B400EB40018B004E
:401E00001F49CC581F4B03EBC4035968884209D11A4B03EB0013D9681A4B03EBC40461600DE01946154B03EB0113DB689842F8D1124B03EB0014E46803EB0111CC600F4B4A
:401E400003EB0013DC68B4F1FF3F08D00B4B03EB0011896803EB04139C6821449960030100200649C85005E0032000E0052082F31088704782F3108810BC7047708DFF1FAE
:401E8000703D0000FC81FF1FF8B5EFF3108472B6032825D800EB4005AB00184DEB5803EB4306B500164E75598D421BD34AB103EB43039E00124B1E44B3689A4214D39542C8
:401EC00014D3A9B103010F4DEB589BB90301EE180127EF507260013900F086F800200AE0032008E0082006E0082004E0082002E0082000E0072084F31088F8BD703D0000E6
:401F0000C03D0000708DFF1F18B108B5C368984708BD704708B508B1406800E00020042816D80C4B53F8203093B10A4A013B42F82030094B53F82030032B07D10222064B8B
:401F400043F820200022054B43F8202000F0E2FB08BD00BF6082FF1F0C83FF1F3485FF1F18B1034640689B6801E00023184604281DD80F4A52F82020CAB10E4A52F82010B4
:401F8000032914D010B50C4C54F820201A4344F820200A4A52F82020134207D0012905D10222044B43F8202000F0B4FB10BD7047D83D00000C83FF1F3485FF1F2085FF1F18
:401FC00080B108B50378012B06D013B1032B06D008BDFFF79FFF08BDFFF7C2FF08BDFFF793FF08BD704700BF30B400EB40029300214AD258214B03EBC2035C68B4F1FF3F52
:4020000004D11E4B03EBC20250602DE01C4B03EB04139B6899420AD2184D05EBC2025060174A02EB04125B1A93601DE01C46144B03EB04139A68891ADB68B3F1FF3F05D0D6
:402040000F4A02EB031292689142EFD2B3F1FF3F05D00B4A02EB031295686D1A9560084A02EB0414E0601C46054B03EB00108160C46030BC704700BF703D0000FC81FF1FFA
:40208000708DFF1F38B5394A02EBC0035C6852F83030013342F8303000EB40018A0034498A58934203D90022304B43F83020B4F1FF3F59D02F4B03EB04139B68002B4ED1E3
:4020C000214600E019462B4B03EB0113DB68B3F1FF3F05D0274A02EB03129268002AF1D0244A02EB01114FF0FF32CA601F4A02EBC0004360B3F1FF3F07D01E4A02EB03138C
:402100009A68013A9A6000E02C4604EB44029300194A13441B7A7BB904EB44029300164A13445A68154B53F8223003EB83039A0013481044FFF744FF0E4B03EB0413DD68F4
:40214000596821B101392046FFF74EFF03E024010022084B1A51B5F1FF3FD5D138BD054A02EB0414013BA36038BD00BFFC81FF1FC03D0000708DFF1F703D0000B03D0000EE
:40218000203D000038B5EFF3108572B6002838D1FFF778FF204B1B68002B34D11F4B1C6800F096FAB0F1FF3F2FD01D4B53F820201C4B1B689A422AD9B4F1FF3F03D0022199
:4021C000194A42F82410194A52F820201343154A13600022144B43F8202000F035FA144B53F820304BB10024114B43F8204040F0004000F023FF20460AE000F01FFF0020CD
:4022000006E0032004E0002002E0002000E0002085F3108838BD00BF7085FF1FF482FF1F303E00005085FF1F0C83FF1F003E00000C85FF1FEFF3108372B6114A1168114A5D
:40224000126882B9B1F1FF3F0FD00F4A52F821206AB110B40D4C54F8212022EA000044F82100002007E0022002E0022000E0012083F31088704783F3108810BC704700BF95
:40228000F482FF1F7085FF1FD83D00003485FF1F04280FD80B4B53F820306BB10A4B53F82030032B0AD059B1084B53F820300B6000207047032070470120704707207047A9
:4022C0000E207047D83D00000C83FF1F3485FF1F38B5EFF3108472B6042853D8324B53F82030002B50D0314B53F82030032B4DD02F4D55F820200A4345F820202D4A52F825
:402300002020114244D0012B44D10222274B43F8202000F0FFF9284B1B68002B3CD1274B1D6800F0D5F9B0F1FF3F37D0244B53F82020244B1B689A4232D9B5F1FF3F03D069
:4023400002211A4A42F825101F4A52F8202013431C4A13600022154B43F8202000F074F91A4B53F820304BB10025184B43F8205040F0004000F062FE284612E000F05EFE50
:4023800000200EE003200CE001200AE0072008E0002006E0002004E0002002E0002000E0002084F3108838BDD83D00000C83FF1F3485FF1F2085FF1F7085FF1FF482FF1FB3
:4023C000303E00005085FF1F003E00000C85FF1F38B5EFF3108472B63A4B1D683A4B1B68002B63D1B5F1FF3F62D0384B53F82530B3F1FF3F5ED1364B53F82530002B5BD0D2
:40240000344B53F82530034258D1334B43F825000122324B43F82520314B53F8250031490B6823EA00030B602F4B43F825202F4B53F82520234B1A6000F04AF9B0F1FF3FBF
:4024400006D02B4B53F82020264B1B689A420DD81C4B1868B0F1FF3F03D000221F4B43F8202040F0004000F0E9FD1AE000211B4A42F820101A4A52F820201343194A1360E6
:4024800000F0E2F8184B53F8203043B10022164B43F8202040F0004000F0D0FD01E000F0CDFD00200C4B43F8250008E0022006E0022004E0062002E0012000E0002084F32D
:4024C000108838BDF482FF1F7085FF1F1082FF1FD83D00003485FF1F2085FF1F0C83FF1F003E00005085FF1F0C85FF1FF882FF1F303E000008B500F0A7F8084B53F820307C
:4025000043B10022054B43F8202040F00040044B186008BD024B186008BD00BF0C85FF1F7485FF1F10B500F0D3F8124B1B68B0F1FF3F1AD0104A52F82010104A126891420B
:4025400013D9B3F1FF3F03D002240D4941F8234000210B4B43F820100A4B53F820301A43064B1A60FFF7C6FF10BD43F00043064A136010BDF482FF1F303E00005085FF1F25
:402580000C83FF1F003E00007485FF1F034B1B6813B10022014B1A60704700BF6485FF1F204B1A68204B1968EFF3108372B6022829D830B41D4C54F8204044BB51B9B2F1D9
:4025C000FF3F26D01A4C54F822501A4C54F82040A54220D809BB184951F82250174C44F8205041F822000121104A42F8201014490C68144A42F820400E4A52F82020224352
:402600000A6000200AE0032083F310887047012004E0012002E0012000E0012083F3108830BC7047F482FF1F7085FF1F0085FF1F303E0000CC3D00001082FF1F0482FF1F4E
:402640005085FF1FB08DFF1FF0B4184B19880B0A174AD356B3F1FF3F01D1535601E008335BB2144D55F82320134850F82200134E56F8224045F82340114D2F6846F8227013
:402680002A60B4F1FF3F09D10E4A42F82340012202FA03F321EA0301044B19800A4B19680A4A42F820101860F0BC70474C85FF1F143C0000B482FF1F488DFF1F3882FF1F05
:4026C0004885FF1F7482FF1FF482FF1FF882FF1F0C4B1A88130A0C49CB56B3F1FF3F01D18B5601E008335BB2B3F1FF3F06D0074A52F82320064B53F8220070474FF0FF30EC
:40270000704700BF4C85FF1F143C0000B482FF1F488DFF1F30B4144B53F82020134C2368134951F823502560124C44F823004FF0FF3441F82340104951F82210A1420AD1EB
:402740000E4951F820400E480188214301800D4941F8223002E0064840F82130064941F8223030BC704700BF4C82FF1F4885FF1F3882FF1F488DFF1F7482FF1F303E00009B
:402780004C85FF1FB482FF1F10B150F8210070474FF0FF30704700BF0122014B1A60FEE76C85FF1F70B50546124B53F8306000241CE0104B03EBC50321465868FFF7E4FF5B
:4027C0000D4A52F82030013B42F820300B4B53F82030032B07D10222084B43F820200022074B43F82020FFF795FF0134B442E0D370BD00BF143D00006082FF1F0C83FF1FF8
:402800003485FF1F18B908B5FFF7CCFF08BD7047194B1A4ADA621A4A9A631A4ADA63EFF3108272B6184B1B6813BB10B5044600F0EFF8164B1C600122134B1A602046FFF786
:40284000E1FFFFF745FFB0F1FF3F0ED0104B53F82030104A11680B43136000220E4B43F82020FFF7F1FE00F0E9FB62B6FFF794FF82F31088072070470080FF1FFD2F0000F2
:40288000C12F0000910000006C85FF1F8C95FF1F003E00005085FF1F0C83FF1F08B5EFF3108272B60D4B19680D4B1B6863B90D4B53F82130B3F1FF3F08D14FF0FF300A4BD0
:4028C00043F82100002002E0022000E0062010B9084600F00CFC82F3108808BDF482FF1F7085FF1F1082FF1F2482FF1F70B53C4B1A683C4B1B68EFF3108572B602285BD822
:40290000394951F82010002958D0384951F82210884255D153B9B2F1FF3F53D0344C54F82260344C54F82040A6424DD8002B4DD1314C54F821402D4941F8224000212A4AAF
:4029400042F820102D4A52F820102D4A1160002B3ED1234B1C68FFF7BBFEB0F1FF3F39D0234B53F82020264B1B689A4234D9B4F1FF3F03D00221234A42F82410224A52F811
:40298000202013431E4A136000221E4B43F82020FFF75AFE1D4B53F820304BB100241B4B43F8204040F0004000F048FB204614E000F044FB002010E003200EE005200CE0D0
:4029C00005200AE0012008E0012006E0012004E0002002E0002000E0002085F3108870BDF482FF1F7085FF1F0085FF1F1082FF1F303E0000CC3D00000482FF1FB08DFF1FE4
:402A00005085FF1F0C83FF1F003E00000C85FF1F38B50D4B1D68EFF3108472B600F0BEFA0A4A136843F07F431360094BAB640121022000F03DF8074A136843F0040313607D
:402A400084F3108838BD00BF08ED00E020ED00E0A90F000000E100E001BE704710B5044605E0084B186800F05FFBA4F50044B4F5004FF6D8034B586800FB04F000F054FBF2
:402A800010BD00BF6483FF1F70B504460E46074B1D681F2802D90020FFF7DEFF04F01F04103455F8240045F8246070BD08ED00E038B504460D46072902D90020FFF7CCFFD1
:402AC0001F2C02D90020FFF7C7FF04F01F0000F1604000F564406D01EDB2057038BD00BF024B1878C0F3C000704700BF01510040024B1878C0F30010704700BF0151004061
:402B0000024B1878C0F34010704700BF01510040024B1878C0F38000704700BF3151004008B500F009FB0A4A137843F020031370013A137843F0100313700232137843F07B
:402B40001003137000F0FCFA00F0E2F808BD00BF9A640040014B1878704700BF69640040014B1878704700BF6B640040034B1B7813F0040FFAD0024B187070476964004033
:402B80004A64004008B501E00A4B1B780A4B1B7813F0200FF8D100F0CFFA084B1A7842F001021A701A7802F0FE021A7000F0C8FA08BD00BF5A6400406B6400409A640040D2
:402BC00008B50F22064B1A70FFF7DCFFFFF7C2FFFFF7C6FF0023034A13700232137008BD8A6400408964004008B5054B1B7823B9FFF7E6FF0122024B1A70FFF791FF08BD63
:402C00005885FF1F044A137803F0F703C00000F00800184310707047C0510040044A137803F0EF03000100F0100018431070704730510040084A137843F00103137010324D
:402C4000137843F00103137002F64D32137843F001031370704700BFA3430040014B1880704700BF044F0040014B1880704700BF064F0040014B1870704700BF034F0040FF
:402C800008B5194A137843F0020313700232137803F08F0343F010031370144B1A7802F0CF021A701A7842F030021A701A7802F0F0021A701A7842F00F021A706420FFF70A
:402CC000CDFF0020FFF7D0FF0020FFF7D3FF084A137843F00103137002F65E32137843F00103137008BD00BF004F00400B4F0040A343004008B5054B1B7823B9FFF7C0FFD3
:402D00000122024B1A70FFF795FF08BD5985FF1F054A137843F0010313701032137843F001031370704700BFA243004008B512490020FFF7A9FE07210020FFF7B9FE0022AC
:402D40000E4B1A7072220E4B1A702022A3F581731A700C490120FFF797FE07210120FFF7A7FE0622084B1A70472210331A70022203F5A9731A7008BD912E00005A85FF1F3E
:402D800089650040292F00002664004010B500F0D3F904460E4A137843F020031370A2F58172137843F0100313700A4A0123136009490B7843F010030B70022307490B60FD
:402DC000136000F0DDF8204600F0BAF910BD00BF9965004000E100E09865004080E200E008B5054B5B7823B9FFF7A0FF0122024B5A70FFF7CBFF08BD5A85FF1F164BD979C8
:402E00009B79DBB2994205D25A1E914214BF0022012204E0CA1A632A14BF00220122002AECD1994207D10D4B1B7813F0040F02D10B4B18707047632900D90021094B5854E6
:402E40000131054BD971054B1B7813F0020F02D00222054B1A6070475A85FF1F6865004047640040609FFF1F00E200E038B5074B5B782BB938BDFFF7C1FF0134A4B201E037
:402E800005460024285D0028F5D138BD5A85FF1F1D4B1B78DBB213F01E0F05D01B4803F01E0201780A43027003F0200303F0FF0233B3174B1978C9B2164B1B78DBB21648C6
:402EC000C154164B1B7813F0FF0F02D00121144B197010490B780133DBB20B700B78DBB2632B02D900210B4B19700A4B1978C9B20C4B1B78DBB2994202D10121074B1970C8
:402F0000002AC5D1704700BF676400405A85FF1F486400405D85FF1FC49FFF1F5E85FF1F5F85FF1F5C85FF1F13E0104B1B78DBB2632B02D900220D4B1A700C4A1378DBB29B
:402F40000B49CB5CDBB20B490B7013780133DBB21370064B1B78DBB2074A1278934204D0064B1B7813F0040FDFD070476085FF1F609FFF1F476400406185FF1F686500403A
:402F8000054A137843F0020313701032137843F002031370704700BFA243004018484FF47F0102680A43026016486FF07F4102680A400260704714484FF08051016070474F
:402FC00072B611484FF000610160FFF7ABFA0F48006800F005F958B10C4800684FF080730B4A0C490FB40FB46FF00600004700BF6FF0060062B6004762B600DF08B070474B
:4030000020ED00E01CED00E004ED00E07485FF1F3D300000F92F0000EFF30880054908600548006880F3088870470248006880F3088870477483FF1F5083FF1F411C890056
:40304000154A11440968154A136899421AD0F0B444464D4656465F46F0B400B5104C9B002344EFF308851D60116089002144096881F3088802BC8E46F0BCA046A946B24608
:40308000BB46F0BC002806DB00B500F09DF802BC8E46FFF7D3BF70476C3E00005485FF1F5483FF1FF0B444464D4656465F46F0B400B5EFF3038308B48000174901440968A4
:4030C000164A0244EFF30883136088471448804704BC4FF08070024382F3038801BC8646F0BCA046A946B246BB46F0BC704780000A4901440A6882F3088804BC4FF0807040
:40310000024382F3038808BC9E46F0BCA046A946B246BB46F0BC7047443E00005C8DFF1F49310000000000000230800803D000BF01380046FCD17047EFF3108072B6704722
:4031400080F31088704700BF10B572B6034B1C68204600F00DF82046FFF7C9FFF482FF1F08B5024B1868FFF79DFF08BDF482FF1F10B4104B53F820304FF0FF310BE00E4A1B
:4031800052F823200B4941F8202000240B4941F8234019461346B3F1FF3FF0D1B1F1FF3F04D0074B53F82120064B1A60084610BC704700BF1082FF1F0482FF1F0085FF1F62
:4031C000B08DFF1F5085FF1F08B562B6FFF7C8FF72B600F041F8014B186808BD7485FF1F00280BDA20F000400130054B53F82000044B1B68181A18BF012070470120704722
:403200006C3E00005485FF1F054B53F82020054B53F820309A4201D101207047002070476082FF1FEC3D000008B5FFF70DFA084B53F8203043B10022054B43F8202040F0E8
:403240000040044B186008BD024B186008BD00BF0C85FF1F7485FF1F38B5364B1C680022354B1A60354A52F82430013342F82430334B53F824502046FFF7C6FF012801D02E
:40328000A54204D103222F4B43F8242003E002222C4B43F824202C4B53F824102B4A136823EA010313602A4B53F82440214B1C60B5F1FF3F0FD0234B53F82530032B07D1EA
:4032C0000222204B43F825200022224B43F825202846FFF71FFAFFF7FBF9B0F1FF3F0BD1B4F1FF3F03D00022164B43F8242044F00044194B1C6038BD184B53F82020134B3D
:403300001B689A4208D800220E4B43F8242044F00044114B1C6038BD00210A4A42F82010094A52F820201343084A1360FFF77CFF38BD00BFF482FF1F6485FF1F6082FF1F78
:403340002482FF1F0C83FF1F003E00005085FF1FF882FF1F3485FF1F7485FF1F303E0000014B1868704700BFD883FF1F0E4B70B51E460E4C0025E41AA410A54204D056F8E0
:40338000253098470135F8E700F0FEFD084B094C1E46E41AA4100025A54204D056F8253098470135F8E770BD943F0000943F0000943F00009C3F000010B5431E0A449142DC
:4033C00004D011F8014B03F8014FF8E710BD03460244934202D003F8011BFAE7704700000000000003000000030000000000000000000000040000000000000000000000BE
:4034000005000000000000000000000003000000030000007034000001000000040000004C3400000300000005000000343400000200000001040000000000008D03000051
:4034400004050000000000008D03000001040000000000008D03000002050000000000000000000000030000000000008D0400000004000000000000B502000003000000C5
:4034800000000000000000000000000001000000000000000000000002000000000000000000000003000000000000002C3500000200000001000000FC340000040000006E
:4034C00002000000CC3400000400000000000000B1010000B90600000102000000000000AD0600000202000000000000A10600000402000000000000950600000002000051
:40350000B10100008106000001010000000000007506000002010000000000006906000004010000000000005D0600000001000000000000510600000300000000000000A0
:40354000C501000045565F4B45594C4546545F496E7075740A00000045565F4B455952494748540A0000000045565F4B455952494748544C4F4E4750524553530A0000006B
:40358000C506000001000000010000009D0C0000FA0000006D0D0000E8030000020000006907000002000000B50B000004000000B10B000008000000030000000FB103056F
:4035C0003C3CB203053C3CB306053C3C053C3CB40103C003280804C101C0C2020D00C3028D2AC4028DEEC5011A3601C0E0100422070A2E30252A28262E3A00010313E10F47
:4036000016060D2D26232727252D3B000104133A0105290000000000003E5B4F5B3E3E6B4F6B3E1C3E7C3E1C183C7E3C181C577D571C1C5E7F5E1C00183C1800FFE7C3E745
:40364000FF0018241800FFE7DBE7FF30483A060E2629792926407F050507407F05253F5A3CE73C5A7F3E1C1C08081C1C3E7F14227F22145F5F005F5F06097F017F0066890A
:40368000956A606060606094A2FFA29408047E040810207E201008082A1C08081C2A08081E101010100C1E0C1E0C30383E3830060E3E0E06000000000000005F00000007F8
:4036C000000700147F147F14242A7F2A12231308646236495620500008070300001C2241000041221C002A1C7F1C2A08083E08080080703000080808080800006060002096
:40370000100804023E5149453E00427F400072494949462141494D331814127F1027454545393C4A49493141211109073649494936464949291E000014000000403400009B
:4037400000081422411414141414004122140802015909063E415D594E7C1211127C7F494949363E414141227F4141413E7F494949417F090909013E414151737F08080848
:403780007F00417F41002040413F017F081422417F404040407F021C027F7F0408107F3E4141413E7F090909063E4151215E7F09192946264949493203017F01033F40403C
:4037C000403F1F2040201F3F4038403F631408146303047804036159494D43007F4141410204081020004141417F04020102044040404040000307080020545478407F28FF
:403800004444383844444428384444287F385454541800087E090218A4A49C787F0804047800447D40002040403D007F1028440000417F40007C047804787C080404783854
:4038400044444438FC1824241818242418FC7C08040408485454542404043F44243C4040207C1C2040201C3C4030403C44281028444C9090907C4464544C4400083641000E
:403880000000770000004136080002010204023C2623263C1EA1A161123A4040207A385454555921555579412254547842215554784020545579400C1E5272123955555526
:4038C00059395454545939555454580000457C410002457D420001457C407D1211127DF0282528F07C545545002054547C547C0A097F4932494949323A4444443A324A4829
:4039000048303A4141217A3A42402078009DA0A07D3D4242423D3D4040403D3C24FF2424487E4943662B2FFC2F2BFF0929F620C0887E090320545479410000447D4130486C
:40394000484A32384040227A007A0A0A727D0D19317D2629292F28262929292630484D4020380808080808080808382F10C8ACBA2F102834FA00007B000008142A14222258
:40398000142A14085500550055AA55AA55AAFF55FF55FF000000FF00101010FF00141414FF001010FF00FF1010F010F0141414FC001414F700FF0000FF00FF1414F404FC58
:4039C000141417101F10101F101F1414141F00101010F0000000001F101010101F10101010F010000000FF101010101010101010FF10000000FF140000FF00FF00001F10D4
:403A0000170000FC04F414141710171414F404F40000FF00F714141414141414F700F7141414171410101F101F141414F4141010F010F000001F101F0000001F14000000E7
:403A4000FC140000F010F01010FF10FF141414FF141010101F00000000F010FFFFFFFFFFF0F0F0F0F0FFFFFF0000000000FFFF0F0F0F0F0F3844443844FC4A4A4A347E02BF
:403A8000020606027E027E0263554941633844443C04407E201E2006027E020299A5E7A5991C2A492A1C4C7201724C304A4D4D303048784830BC625A463D3E494949007EB8
:403AC0000101017E2A2A2A2A2A44445F444440514A444040444A51400000FF0103E080FF000008086B6B083612362436060F090F06000018180000001010003040FF01012A
:403B0000001F01011E00191D1712003C3C3C3C000000000054465400427566666572206F766572666C6F770055415254207374617274656400000000203A2000010000004D
:403B40003C0100000018010000000000BD18000000000000000000000000000000000000000000000000000001000000020000000000000000000000010000000000000016
:403B800001000000983B000000000000000000000100000001000000030000007518000000000000000000000000000000000000000000000000000000000000010000009E
:403BC00000000000004F00400C00205100401000405100403000F0510040100000000140000A800A0140800500140140000800400140000A004C0140000200500140200014
:403C000060520040640500480600000A01406C0500488000FF00010102020202030303030303030304040404040404040404040404040404050505050505050505050505BA
:403C400005050505050505050505050505050505050505050606060606060606060606060606060606060606060606060606060606060606060606060606060606060606D8
:403C80000606060606060606060606060606060606060606070707070707070707070707070707070707070707070707070707070707070707070707070707070707070758
:403CC0000707070707070707070707070707070707070707070707070707070707070707070707070707070707070707070707070707070707070707070707070707070704
:403D00000707070707070707070707070707070707070707010000001C3D00000000000001000000020000000400000000000000FFFFFFFF00000000040000000000000096
:403D400000000000FFFFFFFF01000000020000000200000000000000FFFFFFFF01000000020000000800000000000000FFFFFFFF000000000000000000000000000000003F
:403D800001000000000000000000000002000000000000000000000003000000000000000000000001000000020000000300000000000000010000000200000003000000F1
:403DC0008038010001000000010000002000000040000000800000000000000000000000010000000100000001000000010000000100000001000000010000000100000020
:403E000080000000020000002000000040000000800000000100000002000000040000000800000000000000010000000200000001000000020000002000000040000000AB
:403E40008000000051010000AD0100006D0F0000150F0000410F000061310000613100006131000061310000613100000000000000000000000000000100000002000000F5
:403E800003000000616C726D5F3235306D735F696E70757400000000616C726D5F3235306D735F646973706C61790000616C726D5F627574746F6E5072657373656400009A
:403EC000616C726D316D696E5F696E707574000065765F6576656E74735F6F6E446174610000000065765F427574746F6E735072657373656400000065765F3235306D73DD
:403F00000000000065765F316D696E007265735F627574746F6E735F4C6F636B000000007265735F6576656E74735F4C6F636B007265735F636C6F636B646174615F4C6FA3
:403F4000636B000074736B5F696E69740000000074736B5F6261636B67726F756E64000074736B5F696E70757400000074736B5F636F6E74726F6C0074736B5F6469737049
:403F80006C61790043000000F8B500BFF8BC08BC9E4670474D000000951C0000F8B500BFF8BC08BC9E46704729000000C03F0000C880FF1F18030000481C0000000000006F
:403FC000000000001034000003000000E833000003000300A83400000300000080340000030000000101000000000000000000009C3B0000050000000000000000000000E5
:404000000000000000000000000000000000000000000000000000000000000000000000000000000000000000000000000000000000000000000000000000000000000080
:404040000000000000000000000000000000000000000000000000000000000000000000000000000000000000000000000000000000000000000000000000000000000040
:404080000000000000000000000000000000000000000000000000000000000000000000000000000000000000000000000000000000000000000000000000000000000000
:4040C000000000000000000000000000703B0000010000003C0100000018010000000000483B0000843E0000983E0000AC3E0000C03E000000000000FFFFFFFFFFFFFFFFC3
:40410000FFFFFFFFFFFFFFFFFFFFFFFFFFFFFFFFFFFFFFFFFFFFFFFFFFFFFFFFFFFFFFFFFFFFFFFFFFFFFFFFFFFFFFFFFFFFFFFF01000000020000000300000004000000A5
:40414000FFFFFFFF00000000010000000500000006000000070000000100000001000000010000000100000001000000FFFFFFFFFFFFFFFFFFFFFFFFFFFFFFFFFFFFFFFF3F
:40418000FFFFFFFFFFFFFFFFFFFFFFFFFFFFFFFFFFFFFFFFFFFFFFFFFFFFFFFFFFFFFFFFFFFFFFFFFFFFFFFFFFFFFFFFFFFFFFFFFFFFFFFFFFFFFFFFFFFFFFFFFFFFFFFF3F
:4041C000FFFFFFFFFFFFFFFFFFFFFFFFFFFFFFFFFFFFFFFFFFFFFFFFFFFFFFFFFFFFFFFFFFFFFFFFFFFFFFFFFFFFFFFFFFFFFFFFFFFFFFFFFFFFFFFFFFFFFFFFFFFFFFFFFF
:40420000FFFFFFFF0300000003000000030000000300000003000000D03E0000E43E0000F83E0000043F00000C3F0000203F0000303F0000443F0000503F0000603F000000
:404240006C3F0000783F0000609FFF1F00000000208DFF1F389DFF1F6495FF1F0000E02EC05D00001800000000366E01000000000000000000000000000000000000000002
:4042800000000000000000000000000000000000843F000000000000000000000000000000000000000000000000000000000000000000000000000000000000000000003B
:4042C000000000000000000000000000000000007883FF1F0000000000000000000000000000000000000000000000000000000000000000000000000000000000000000A5
:40430000000000000000000000000000000000000000000000000000000000000000000000000000000000000000000000000000000000000000000000000000000000007D
:40434000000000000000000000000000000000000000000000000000000000000000000000000000000000000000000000000000000000000000000000000000000000003D
:4043800000000000000000000000000000000000000000000000000000000000000000000000000000000000000000000000000000000000000000000000000000000000FD
:4043C00000000000000000000000000000000000000000000000000000000000000000000000000000000000000000000000000000000000000000000000000000000000BD
:020000040003F7
:0200000480007A
:40000000024F004002640040026500400103014001050140630601403E070140570801403E090140110A0140320B014004140140061501400F170140401801404D190140C8
:40004000081B01400340014009410140074201400A430140024401400145014001460140014701400748014006490140044C01400C4D0140055001400151014001200A3601
:4000800087388A0F880F89728340A740020C082C0A4314711501160619011C801E13220824712501260E290130C031013230340F380A39023A203E043F014003460449FF47
:4000C0004A074BFF4C404D204EF04F055008580459045A045C015D015F01604061A8624063208220830386208C038E148F2092089413950C960C9771980A9A149D14A1099D
:40010000A215A3D0A510A7ACA813A9DCAA04AB22AD10AF40B010B20FB3E0B420B71FBA08BB08BE11C035C106C5C0C6EBC80EC9FFCAFFCBFFCEF0CF44D00CD418D604D804A2
:40014000D904DA04DB04DC11DD11DF01E6C0EA40EB020086051109200A500E120F011208130115081640184019041A101B201D391E40200121042208278029152A402F18E9
:400180003080320835083720388142104508484049024A094C404F01508051105640580160086280638089028C4099089B20A308A740A908AB20B708C05DC2AEC43ACA6FD6
:4001C000CC6ACE09D042D20CD601D80DE81003010402070108020C020D01100219011A012A0132013301340239083A023E144062410542044401450E460C480549FF4AFF42
:400200004BFF4C624DA04EF04F41500C580459045A045C115D015F016640670269106A306B106D106E106F1280048280845685908609872A880189FC8C848D208FC19007ED
:40024000910492389404980A99FC9A10A084A484A548A732A880AA04AC60B008B1E0B27FB318B480B504B602B703B808BE51BF40D409D804D904DB04DC10DF01008A03086A
:400280000484052006020A580E800F48111412011301172019501A801B081E841F04206021A427202820302033013520384039283A403C043E023F4045A047024D204F48A3
:4002C0005740581059065A8061408A108D409008911492589301981099049A019B089D10A045C0EFC25EC44FCA02CC25CEDED0B0D230D60FD808E0C0845586AA8C208ED0A9
:40030000980E9C339EC4A494A669B40FB6F0B820BA80D440D804DB04DF0100860408054008100A510B080E080F02111413011708180819A01A591B011D401E08200C21A0C1
:40034000231829212B01300831A0320139543B014004424049954B02500852115304614066106712684169546A027301C0ADC2CFC42ECA0DCC0FCE0FD005D20CD878B88034
:40038000BE40D804DF011F4087509720AC01B401EE08840189109001912097209C01A401A804AA80AB20AC08AF80E20AEA04EE08060609010E0410021401260634013501AB
:4003C00036063E103F1054015604580459045B045D105F0180038304840C85188613880289088C0F8DFF8E1093E394139580960C9801993C9A209BC29D109E13A008A1C020
:40040000A404A544A80CA9E7AB18AC1FAD1CAFE1B01CB1C0B40FB51FB620B738BA22BB20D602D712D804D904DB04DC11DD10DF010064024803800408054008240A020D08CE
:400440000E40108012141354170818C219201B011D401E0820042102229023022620282029202B812C042D2030803219330238023A143B403D205A045C015D405E286780CD
:40048000682069206B01708073148502874089088A209008914092449340948495209A409B089C209D209F03A010A210A302A420AB40AF04B532B70AC0AFC237C42FCA0F03
:4004C000CC0FCE2FD6F2D880E4208C209C20A801A908AE80B140B510EC1033113580CC70052008080E1083109D809F11C080C230E22053089210980899209D809F01D4203B
:400500001B089D809F01A708A808AA10B520C610E880EC207004DC01940894089408671085809D80AF01D880E210EA40030887189710C040E210E4408804B404E004E80842
:400540001280740478408E809840A004B040C408DC01DE04E202E80100030A020C0310031C03003F8094000040000000988D0200FC8D0300008D00009A0D0080138D640099
:400580003840C000024200082102D80D9A0000809800020002629814001100221300E0800F700F0F0000A8A0000000045204600000DEF0BC3BFFFFFF2200F00804000000C6
:4005C0000000022004040404000000010000C00040011011C001001140014001000000000000000000000000000000003800000000000000800040BCBC00B400000000002E
:40060000000B0B0000000000041818000800000000000000000000000000000000000000000000000000000000000000000000000000000000000000000000000000000068
:40064000000000000000000000000000000000000000000000000000000000000000000000000000000000000000000000000000000000000000000000000000000000007A
:40068000000000000000000000000000000000000000000000000000000000000000000000000000000000000000000000000000000000000000000000000000000000003A
:4006C00000000000000000000000000000000000000000000000000000000000000000000000000000000000000000000000000000000000000000000000000000000000FA
:4007000000000000000000000000000000000000000000000000000000000000000000000000000000000000000000000000000000000000000000000000000000000000B9
:0200000490006A
:0400000000004005B7
:0200000490105A
:04000000BC90ACAF55
:0200000490303A
:020000002C14BE
:0200000490402A
:4000000000000000000000000000000000000000000000000000000000000000000000000000000000000000000000000000000000000000000000000000000000000000C0
:400040000000000000000000000000000000000000000000000000000000000000000000000000000000000000000000000000000000000000000000000000000000000080
:400080000000000000000000000000000000000000000000000000000000000000000000000000000000000000000000000000000000000000000000000000000000000040
:4000C0000000000000000000000000000000000000000000000000000000000000000000000000000000000000000000000000000000000000000000000000000000000000
:0200000490501A
:0C00000000012E16106900012E2F3C7D1F
:00000001FF