:400000000080002011000000A11A0000A11A000008B5044B1A6803F53F5302331A6001F047FD00BFFA46004010B5054C237833B9044B13B10448AFF300800123237010BDBC
:400040001883FF1F00000000A02F0000084B10B51BB108490848AFF300800848036803B910BD074B002BFBD0BDE81040184700BF000000001C83FF1FA02F0000C880FF1FC0
:400080000000000008B5002001F05EFF08BD00BF684620F007018D4619B572B6EFF311841E4B1B68DBB20F2B10D9103B23F0030202F1604202F564421168DB0003F01803F8
:4000C000E0229A400A4022FA03F306E00F2B03D1134B1B681B0E00E0002383F31188114A136801331360012B01D102F075FD62B6FFF7C8FF72B684F3118802F029F9094A65
:400100001368013B13601BB902F06FFD02F033FD62B6BDE819408546704700BF04ED00E020ED00E09484FF1F08B562B645F6BF52054B1A60054A136843F002031360002076
:4001400002F048FAFBE700BF14E000E010E000E008B501F00FF802F03DFB0F4A136843F00503136032221146042001F06FFDFA220121084601F06AFD022001F0F3FC032070
:4001800001F0F0FC042001F0EDFC012001F0EAFC02F066FA08BD00BF10E000E0FEE700BF034B9B7B052B01D10020704701207047CC80FF1F30B587B0394B1B6993F82020B4
:4001C000012A02D1586A02F0CDF8354C03AB94E8070003C323F8022B120C1A70236993F82020012A02D1586A02F062FA9DF80D3001339DF8101093FBF1F201FB1233DBB2C1
:400200008DF80D3053B99DF8123001339DF8151093FBF1F201FB12338DF8123001238DF80C308DF811306B4606AA12E9070003C323F8022B120C1A70194B1B6993F820203B
:40024000012A02D1586A02F08DF8154C23469DE8070003C323F8022B120C1A700023E3600223E372236993F82020012A02D1586A02F01EFA0A4B1B695D699B6873B13DB97E
:400280000CE0996855F8240001F004FF013400E00024034B1B691A699442F2D307B030BD0C81FF1F30B587B0334B1B6993F82020012A02D1586A02F055F82F4C03AB94E8E7
:4002C000070003C323F8022B120C1A70236993F82020012A02D1586A02F0EAF99DF81430012B03D18DF813308DF811309DF80F30012B03D18DF80E308DF80C306B4606AA35
:4003000012E9070003C323F8022B120C1A701A4B1B6993F82020012A02D1586A02F022F8154C23469DE8070003C323F8022B120C1A700023E3600223E372236993F8202042
:40034000012A02D1586A02F0B3F90B4B1B695D699B6873B13DB90CE0996855F8240001F099FE013400E00024034B1B691A699442F2D307B030BD00BF0C81FF1F30B587B029
:400380003D4B1B6993F82020012A02D1586A01F0E9FF394C03AB94E8070003C323F8022B120C1A70236993F82020012A02D1586A02F07EF99DF81430012B0DD19DF8123027
:4003C00001339DF8151093FBF1F201FB12338DF8123001238DF811309DF80F30012B0DD19DF80D3001339DF8101093FBF1F201FB12338DF80D3001238DF80C306B4606AA59
:4004000012E9070003C323F8022B120C1A701A4B1B6993F82020012A02D1586A01F0A2FF154C23469DE8070003C323F8022B120C1A700023E3600223E372236993F82020BB
:40044000012A02D1586A02F033F90B4B1B695D699B6873B13DB90CE0996855F8240001F019FE013400E00024034B1B691A699442F2D307B030BD00BF0C81FF1F30B587B028
:40048000354B1B6993F82020012A02D1586A01F069FF314C03AB94E8070003C323F8022B120C1A70236993F82020012A02D1586A02F0FEF89DF81430012B05D100238DF86E
:4004C000133001238DF811309DF80F30012B05D100238DF80E3001238DF80C306B4606AA12E9070003C323F8022B120C1A701A4B1B6993F82020012A02D1586A01F032FF7F
:40050000154C23469DE8070003C323F8022B120C1A700023E3600223E372236993F82020012A02D1586A02F0C3F80B4B1B695D699B6873B13DB90CE0996855F8240001F0FF
:40054000A9FD013400E00024034B1B691A699442F2D307B030BD00BF0C81FF1F70B586B006460D46344B1B6993F82020012A02D1586A01F0F7FE304C03AB94E8070003C3BD
:4005800023F8022B120C1A70236993F82020012A02D1586A02F08CF82EB901238DF8143000238DF80F30012E05D100238DF8143001238DF80F306B4606AA12E9070003C301
:4005C00023F8022B120C1A701B4B1B6993F82020012A02D1586A01F0C5FE174C23469DE8070003C323F8022B120C1A700023E3600223E372236993F82020012A02D1586ADD
:4006000002F056F80C4B1B695E699B6873B13EB90CE0996856F8240001F03CFD013400E00024054B1B691A699442F2D32946034800F0A4FF06B070BD0C81FF1FCC80FF1FC1
:4006400008B500210846FFF789FF08BD08B504210020FFF783FF08BD08B502210020FFF77DFF08BD08B501210020FFF777FF08BD08B500210846FFF771FF00210120FFF79B
:400680006DFF08BD08B504210120FFF767FF08BD08B502210120FFF761FF08BD08B501210846FFF75BFF08BD08B500210120FFF755FF08BD10B50C4B9B6893F82020012A64
:4006C00002D1586A01F04EFE074B1C789B6893F82020012A02D1586A01F0EAFF2146034800F04CFF10BD00BF0081FF1FDC80FF1F30B587B09C4BDB681A68002A4DD09A4A55
:40070000126806A840F8082D1B68984700282ED1049B0193944BDB6893F82020012A02D1586A01F01FFE904B019A1A6000229A6002221A71DB6893F82020012A02D1586A24
:4007400001F0B6FF884BDB685D699B682BB33DB923E0996855F8240001F09CFC013400E00024814BDB681A699442F2D315E07E4B03221A71DB68DD69DB6873B13DB90CE07C
:40078000D96855F8240001F085FC013400E00024754BDB689A699442F2D3734BDB6893F82020012A02D1586A01F0DCFD6E4B1A680592DB6893F82020012A02D1586A01F054
:4007C00077FF9DF81530002B40F031819DF81430002B40F02C819DF81630002B5ED000238DF81630059B02935F4BDB6893F82020012A02D1586A01F0B5FD5B4B029A1A608D
:4008000000229A6002221A71DB6893F82020012A02D1586A01F04CFF534BDB685D699B6873B13DB90CE0996855F8240001F032FC013400E000244C4BDB681A699442F2D371
:400840004A4B9B6893F82020012A02D1586A01F089FD464B00221A705A6002225A709B6893F82020012A02D1586A01F021FF3F4B9B685D699B68002B00F0D9803DB9D6E0E4
:40088000996855F8240001F005FC013400E00024364B9B681A699442F2D3C8E09DF81720531EDBB2262B63D800238DF81730059B03932D4BDB6893F82020012A02D1586A90
:4008C00001F050FD284B039A1A6000229A6002221A71DB6893F82020012A02D1586A01F0E7FE214BDB685D699B6873B13DB90CE0996855F8240001F0CDFB013400E00024DF
:40090000194BDB681A699442F2D3184B9B6893F82020012A02D1586A01F024FD134B01221A7000225A6002225A709B6893F82020012A02D1586A01F0BBFE0C4B9B685D69C2
:400940009B68002B73D03DB971E0996855F8240001F0A0FB013400E00024044B9B681A699442F2D363E000BFF080FF1F0081FF1F272A5CD92F4B9B6893F82020012A02D11D
:40098000586A01F0EFFC2B4B02221A7000225A6002225A709B6893F82020012A02D1586A01F086FE234B9B685D699B6873B13DB90CE0996855F8240001F06CFB013400E089
:4009C00000241C4B9B681A699442F2D300238DF81730059B0493184BDB6893F82020012A02D1586A01F0BEFC134B049A1A6000229A6002221A71DB6893F82020012A02D1FC
:400A0000586A01F055FE0C4BDB685D699B6873B13DB90CE0996855F8240001F03BFB013400E00024044BDB681A699442F2D307B030BD00BF0081FF1FF080FF1F38B51A4BE3
:400A40001B78012B03D10022174B1A7038BD174B9B6893F82020012A02D1586A01F082FC124B03221A7000225A6002225A709B6893F82020012A02D1586A01F019FE0B4BBF
:400A80009B685D699B6873B13DB938BD996855F8240001F0FFFA013400E00024034B9B681A699442F2D338BDEC80FF1F0081FF1F38B5164B9B6893F82020012A02D1586A5D
:400AC00001F050FC114B04221A7000225A6002225A709B6893F82020012A02D1586A01F0E7FD0A4B9B685D699B6873B13DB938BD996855F8240001F0CDFA013400E00024ED
:400B0000024B9B681A699442F2D338BD0081FF1F30B587B0314BDB7A022B03D12F4803695B6898472D4B1B6993F82020012A02D1586A01F017FC294C03AB94E8070003C349
:400B400023F8022B120C1A70236993F82020012A02D1586A01F0ACFD00238DF811308DF80C306B4606AA12E9070003C323F8022B120C1A70194B1B6993F82020012A02D160
:400B8000586A01F0EFFB154C23469DE8070003C323F8022B120C1A700023E3600223E372236993F82020012A02D1586A01F080FD0A4B1B695D699B6873B13DB90CE099687E
:400BC00055F8240001F066FA013400E00024034B1B691A699442F2D307B030BD0C81FF1F30B58BB0664B1B78012B5BD1654B1B6993F82020012A02D1586A01F0B3FB614CF4
:400C000004AB94E8070003C323F8022B120C1A70236993F82020012A02D1586A01F048FD01238DF815308DF8103001AB04AA07CA03C323F8022B120C1A70524B1B6993F83F
:400C40002020012A02D1586A01F08CFB4D4C234601AA07CA03C323F8022B120C1A700023E3600223E372236993F82020012A02D1586A01F01DFD434B1B695D699B6873B1C7
:400C80003DB90CE0996855F8240001F003FA013400E000243B4B1B691A699442F2D30022374B1A70374B1B6993F82020012A02D1586A01F057FB334C07AB94E8070003C315
:400CC00023F8022B120C1A70236993F82020012A02D1586A01F0ECFC9DF8233043B99DF81E302BB99DF82630DB438DF8263002E001238DF8263004AB0AAA12E9070003C379
:400D000023F8022B120C1A701E4B1B6993F82020012A02D1586A01F025FB1A4C234604AA07CA03C323F8022B120C1A700023E3600223E372236993F82020012A02D1586A3F
:400D400001F0B6FC0F4B1B695D699B6873B13DB90CE0996855F8240001F09CF9013400E00024084B1B691A699442F2D3054BDB7A022B03D1034803695B6898470BB030BD56
:400D8000ED80FF1F0C81FF1F00B583B000230193012001F0FFF901A9032001F05BF9019801F02AF9019A0121014800F07FFCEFE70431000010B5084C22680221074800F014
:400DC0005DFC2368FA33236013F5807F01D90022226001F045FC10BD3483FF1F1031000010B5084C22680321074800F047FC23681933236013F5807F01D90022226001F0AC
:400E00002FFC10BD3883FF1F24310000684620F007018D4619B572B6EFF311841D4B1B68DBB20F2B10D9103B23F0030202F1604202F564421168DB0003F01803E0229A4018
:400E40000A4022FA03F306E00F2B03D1124B1B681B0E00E0002383F31188104A136801331360012B01D101F0B7FE62B672B684F3118801F06DFA094A1368013B13601BB9EE
:400E800001F0B3FE01F077FE62B6BDE819408546704700BF04ED00E020ED00E09484FF1F38B5134B988908B319461C89631C9BB2104AA2FB03525209642505FB12330B81E7
:400EC0000138888101EB44018B7B13B1012B04D006E0002001F064FD02E0012001F060FD034B03EB4404E07B01F00EFD38BD00BF3C83FF1F1F85EB5130B5ABB01B4B9B89F6
:400F0000632B17D92AAD032305F8A83D184B1868CDF80100174C0FCCCDF81100CDF81510CDF81920CDF81D30284600F0FDFA6FF0070019E00D4D6C89621C92B205EB4404A0
:400F4000A073E1730C49A1FB02014909642000FB11226A8101339BB2AB81012B03D1FFF79FFF002000E000202BB030BD3C83FF1F9C360000A03600001F85EB512DE9F04152
:400F800080460E4617461D462A210020FFF7B4FF00210120FFF7B0FF194C94F8D6104144C9B20120FFF7A8FF00210120FFF7A4FF94F8D6103944C9B20120FFF79DFF2B2183
:400FC0000020FFF799FF00210120FFF795FF94F8D7103144C9B20120FFF78EFF00210120FFF78AFF94F8D7102944C9B20120FFF783FF2C210020FFF77FFFBDE8F08100BF05
:401000003C83FF1F10B5044636210020FFF774FF04F003002A4B83F8D80003284ED8DFE800F00215283BC2210120FFF765FF244BA022A3F8DA208022DA8093F8DC2083F881
:40104000D62093F8DD2083F8D72010BDA2210120FFF752FF1A4BA022DA808022A3F8DA2093F8DC2083F8D72093F8DD2083F8D62010BD08210120FFF73FFF114BA022A3F8DA
:40108000DA208022DA8093F8DC2083F8D62093F8DD2083F8D72010BD62210120FFF72CFF074BA022DA808022A3F8DA2093F8DC2083F8D72093F8DD2083F8D62010BD00BF93
:4010C0003C83FF1F2DE9F0411F46BDF818501F4BB3F90630834236DD90461C4AB2F8DA20914230DA00EB0804013C9C4202DB1B1A0FFA83F87B18013B9A4201DC571A3FB2D7
:40110000C0B2C9B2CB19013B00EB0802013ADBB2D2B2FFF733FF2E0AEDB2012001F040FC0FE031460220FFF7E7FE29460220FFF7E3FE013C24B200E04446002CF1DC013F93
:401140003FB2002FF8DCBDE8F08100BF3C83FF1F00B583B0064AB2F9DA30B2F90620009000210846FFF7AEFF03B05DF804FB00BF3C83FF1FF8B5364B8022DA80A022A3F83F
:40118000DA20002483F8D840A3F8DE40A3F8E04001251D714FF6FF72A3F8E220A3F8E4405D711C6083F8DD4083F8DC4083F8D64083F8D7401C815C819C8101F0E3FB2846D4
:4011C00001F0FAFB642001F02BFB204601F0F4FB642001F025FB284601F0EEFB142001F01FFB29462046FFF787FE322001F018FB11212046FFF780FE782001F011FB0F2294
:40120000144D14E02C4614F8021B0020FFF774FE6A78254606E06E1C29780120FFF76CFE22463546531EDCB2002AF4D13A46531EDFB2002AE6D10220FFF7E4FE0020FFF713
:4012400087FF01F025FC642001F0DCFBF8BD00BF3C83FF1F45310000002821DB114BB3F9063098421CDA00291ADB0E4BB3F8DA30994215DA10B51446C0B2C9B24B1C421CCA
:40128000DBB2D2B2FFF77AFE012001F089FB210A0220FFF731FEE1B20220FFF72DFE10BD704700BF3C83FF1FF8B51E46164BB3F90630834226DD1546134BB3F8DA3099424C
:4012C00020DA0A44013A934201DC5D1A2DB2C0B2C9B24B19013BDBB20246FFF74FFE370AF6B2012001F05CFB08E039460220FFF703FE31460220FFF7FFFD25466A1E14B2A8
:40130000002DF2D1F8BD00BF3C83FF1F2DE9F04F8BB00290039115460493BDF850709DF854A07F4B1A68002A40F09080B3F906300146834240F3F180794BB3F8DA3003986A
:40134000984280F2EA800AEB4A0253000B44012B00F1E38000EBCA03012B00F1DE804FF00008894683460595049E4EE0059B03EB830343446B4A134493F8585000243EE0BC
:4013800015F0010F1BD0BAF1010F09D104EB0B0108EB0900324609B200B2FFF75DFF2BE01FFA8AF00FFA8AF204FB00B108FB00900096134609B200B2FFF784FE1CE0BE4234
:4013C0001AD0BAF1010F09D104EB0B0108EB09003A4609B200B2FFF73FFF0DE01FFA8AF00FFA8AF204FB00B108FB00900097134609B200B2FFF766FE013464B26D08072C64
:40140000BEDD08F101084FFA88F8B8F1040FADDD049BBB4200F08180BAF1010F08D1029805303B460822039900B2FFF73DFF74E01FFA8AF303EB8300029A10440097DB0028
:401440005246039900B2FFF73DFE66E0137AEB1ADBB2506800EBC301D2F800B030F8337091F80280CB78079391F90530089391F906200992BAF1010F04D91BB2059313B2F5
:40148000069302E000230693059300231C46994640E05E1CF6B213F0070F03D17B1C1BF807409FB214F0800F27D0BAF1010F0DD1099B039A99184944089B029A981828448B
:4014C000049A09B200B2FFF7C7FE16E0059B58191FFA8AF3069A02EB09010FFA8AFE039A01FB0321029A00FB0320049B00937246734609B200B2FFF7E5FD6400E4B20135D2
:40150000EDB2334600E000254545C2D309F101095FFA89F9079A9145F5D30BB0BDE8F08F3C83FF1F4431000010B50446013001F003FB064801F000FB04F1110001F0FCFACA
:40154000034801F0F9FA002010BD00BFC4360000B036000030B4002309E003EB4305AC00045D944201D118B205E001339BB28B42F3D34FF0FF3030BC704700BF2DE9F04FED
:4015800085B005468A4690F80E800468424681882046FFF7DFFFB0F1FF3F63D000EB400293001A4623445E681EB11444B4F8089001E04FF00009002E57D0B9F1000F57D066
:4015C000474600240294019447E0A34604EB44029300F35C53453ED104EB4402930033445B6813B19847012835D14FEA4B0202EB0B018B00194633449B6803930B4633442C
:401600005F78B5F80CC00023DDF808B016E0A968184603EB430E4FEA8E0296468A5C904502D18E44DEF808B0974205D100EB4000820011444A68019201339BB26345E6D39B
:401640005B46CDF808B003B1D847039B03B19847019B03B198470134A4B2A145B5D8AF73002007E06FF0040004E06FF0160001E06FF0160005B0BDE8F08F00BFF8B506464F
:401680000F46154600240DE006EBC4039A88B5FBF2F302FB13531BB956F83430002098470134A4B2BC42EFD30020F8BDF8B505460E461746002409E005EBC403586838424B
:4016C00002D055F8343098470134A4B2B442F3D30020F8BD10B5044600230370437001F0CDF8012803D001F0D9F8012807D10023237001226270E370A3781344A37001F02B
:40170000C5F8012803D001F0D1F8012807D10123237000236370A370E3780133E370002010BD00BF2DE9F04383B004464379012B2FD1C379012B02D14FF6FF7801E04FF022
:401740000008012B01D1002701E04FF6FF77A679384DA5FB0635ED084FF00309CDF80490CDF800803B4605F130023C210A20FFF7CDFD05EB85056A00B21AD2B23032CDF8F8
:401780000490CDF800803B46D2B23C211E20FFF7BDFD2378012B2FD1A378012B02D14FF6FF7801E04FF00008012B01D1002701E04FF6FF7766781F4DA5FB0635ED084FF021
:4017C0000309CDF80490CDF800803B4605F130023C215020FFF79AFD05EB85056A00B21AD2B23032CDF80490CDF800803B46D2B23C216420FFF78AFDA37A012B0BD103235A
:401800000193002300934FF6FF733A223C213720FFF77CFD0AE003230193002300934FF6FF7320223C213720FFF770FD002003B0BDE8F083CDCCCCCCFEE700BFF0B4002238
:40184000174611E050F82760F3B226F0FF0608E001EB420511F812406D78A5550132013BDBB2002BF4D101371E2FEBD9F0BC7047064B1B78DBB203F00701054A11701B093E
:40188000013213704422034B1A707047CF0100496E5800407658004008B50A46002101F076FB08BD38B50024284B1C80582202331A70192502331D801823254A137041F232
:4018C000BF2102321180023213700222214B1A7008224FF040231A70032103F5007319701D4B1B78DBB21D490B701D4B1A8041F25122023B1A800CE01A4B1B7803F0010341
:4019000043EA440404F003044FF4F07001F0ECF9013D0DB1032CEFD115B90320FFF78CFF114B4FF480721A8007221A7000220F490A704820023108701A700222033B1A7006
:401940000B4A137843F00703137038BD80400040864000400043004008010049A146004022420040254200400440004006400040A243004008B501F0FFFA08BD38B572B6D5
:40198000364A137843F00403137000240CE0344D630019194A0011462A44084691882858FFF77AFF0134E4B2092CF0D900240CE02B48A20011194B000344B3F84420196C96
:4019C000D86BFFF7D7FF0134E4B2012CF0D925494FF09040FFF732FF234A137843F0020313701032137843F0020313701F4C237843F040032370A2F58632513A137843F091
:401A00001003137008221A491A48FFF7B3FF0A2219491A48FFF7AEFF082219491948FFF7A9FF082218491948FFF7A4FF184A137843F008031370174D61232B70FFF732FF7E
:401A400081232B700122144B1A70FFF711FF0E2221461248FFF78EFF38BD00BFE8460040503700007C00004803500140A0430040EC05004802510040F4050048C05100401F
:401A800000060048125100400806004832510040224300400048004004000840B043004008B501F03DFA03680C2B00D1FEE7FEE708B5104E104D16E029686B68AC68002246
:401AC00004E051F8040B43F8040B0432A242F8D1E868002203E0002143F8041B04328242F9D11035013E002EE6D101F01FFAFEF71BFBFEE7010000007C3B000008B5104AB7
:401B0000104B1A60104A136843F40073136000230AE0032B03D80D4A52F8231000E00C490C4A42F8231001332F2BF2D90A4B1A780A4B1A70074A0A4B1A60FFF71FFF08BDE4
:401B40000004FA050CED00E014ED00E000000000A11A00000080FF1FBC760040C080FF1F08ED00E038B5EFF3108572B604284ED82D4B53F82030002B4BD02B4A013B42F888
:401B800020302A4B53F82030032B07D10222274B43F820200022264B43F8202000F09CFC244B1B68002B36D1234B1C6800F072FCB0F1FF3F31D0214B53F82020204B1B68DF
:401BC0009A422CD9B4F1FF3F03D00221174A42F824101C4A52F820201343194A13600022124B43F8202000F011FC174B53F820304BB10024144B43F8204040F0004000F0D2
:401C0000FDFF20460CE000F0F9FF002008E0032006E0042004E0002002E0002000E0002085F3108838BD00BF9881FF1F4482FF1F5884FF1F9484FF1F2C82FF1FE839000037
:401C40007484FF1FB43900003084FF1FF8B5EFF3108472B6042825D800EB4005AB00184DEB5803EB4306B500164E75598D421BD34AB103EB43039E00124B1E44B3689A423A
:401C800014D3954214D3A9B103010F4DEB589BB90301EE180127EF507260013900F086F800200AE0032008E0082006E0082004E0082002E0082000E0072084F31088F8BD17
:401CC0001039000074390000948CFF1F18B108B5C368984708BD704708B508B1406800E00020042816D80C4B53F8203093B10A4A013B42F82030094B53F82030032B07D127
:401D00000222064B43F820200022054B43F8202000F0E2FB08BD00BF9881FF1F4482FF1F5884FF1F18B1034640689B6801E00023184604281DD80F4A52F82020CAB10E4A6A
:401D400052F82010032914D010B50C4C54F820201A4344F820200A4A52F82020134207D0012905D10222044B43F8202000F0B4FB10BD70478C3900004482FF1F5884FF1F99
:401D80004484FF1F80B108B50378012B06D013B1032B06D008BDFFF79FFF08BDFFF7C2FF08BDFFF793FF08BD704700BF30B400EB40029300214AD258214B03EBC2035C6891
:401DC000B4F1FF3F04D11E4B03EBC20250602DE01C4B03EB04139B6899420AD2184D05EBC2025060174A02EB04125B1A93601DE01C46144B03EB04139A68891ADB68B3F149
:401E0000FF3F05D00F4A02EB031292689142EFD2B3F1FF3F05D00B4A02EB031295686D1A9560084A02EB0414E0601C46054B03EB00108160C46030BC704700BF1039000028
:401E40003481FF1F948CFF1F38B5394A02EBC0035C6852F83030013342F8303000EB40018A0034498A58934203D90022304B43F83020B4F1FF3F59D02F4B03EB04139B6879
:401E8000002B4ED1214600E019462B4B03EB0113DB68B3F1FF3F05D0274A02EB03129268002AF1D0244A02EB01114FF0FF32CA601F4A02EBC0004360B3F1FF3F07D01E4A87
:401EC00002EB03139A68013A9A6000E02C4604EB44029300194A13441B7A7BB904EB44029300164A13445A68154B53F8223003EB83039A0013481044FFF744FF0E4B03EB90
:401F00000413DD68596821B101392046FFF74EFF03E024010022084B1A51B5F1FF3FD5D138BD054A02EB0414013BA36038BD00BF3481FF1F74390000948CFF1F103900001A
:401F400060390000AC38000038B5EFF3108572B6002838D1FFF778FF204B1B68002B34D11F4B1C6800F096FAB0F1FF3F2FD01D4B53F820201C4B1B689A422AD9B4F1FF3FB1
:401F800003D00221194A42F82410194A52F820201343154A13600022144B43F8202000F035FA144B53F820304BB10024114B43F8204040F0004000F021FE20460AE000F05A
:401FC0001DFE002006E0032004E0002002E0002000E0002085F3108838BD00BF9484FF1F2C82FF1FE83900007484FF1F4482FF1FB43900003084FF1FEFF3108372B6114AFF
:402000001168114A126882B9B1F1FF3F0FD00F4A52F821206AB110B40D4C54F8212022EA000044F82100002007E0022002E0022000E0012083F31088704783F3108810BC79
:40204000704700BF2C82FF1F9484FF1F8C3900005884FF1F04280FD80B4B53F820306BB10A4B53F82030032B0AD059B1084B53F820300B6000207047032070470120704725
:40208000072070470E2070478C3900004482FF1F5884FF1F38B5EFF3108472B6042853D8324B53F82030002B50D0314B53F82030032B4DD02F4D55F820200A4345F8202040
:4020C0002D4A52F82020114244D0012B44D10222274B43F8202000F0FFF9284B1B68002B3CD1274B1D6800F0D5F9B0F1FF3F37D0244B53F82020244B1B689A4232D9B5F1FC
:40210000FF3F03D002211A4A42F825101F4A52F8202013431C4A13600022154B43F8202000F074F91A4B53F820304BB10025184B43F8205040F0004000F060FD284612E0D0
:4021400000F05CFD00200EE003200CE001200AE0072008E0002006E0002004E0002002E0002000E0002084F3108838BD8C3900004482FF1F5884FF1F4484FF1F9484FF1FF0
:402180002C82FF1FE83900007484FF1FB43900003084FF1F38B5EFF3108472B63A4B1D683A4B1B68002B63D1B5F1FF3F62D0384B53F82530B3F1FF3F5ED1364B53F82530F6
:4021C000002B5BD0344B53F82530034258D1334B43F825000122324B43F82520314B53F8250031490B6823EA00030B602F4B43F825202F4B53F82520234B1A6000F04AF98B
:40220000B0F1FF3F06D02B4B53F82020264B1B689A420DD81C4B1868B0F1FF3F03D000221F4B43F8202040F0004000F0E7FC1AE000211B4A42F820101A4A52F82020134322
:40224000194A136000F0E2F8184B53F8203043B10022164B43F8202040F0004000F0CEFC01E000F0CBFC00200C4B43F8250008E0022006E0022004E0062002E0012000E036
:40228000002084F3108838BD2C82FF1F9484FF1F4881FF1F8C3900005884FF1F4484FF1F4482FF1FB43900007484FF1F3084FF1F3082FF1FE839000008B500F0A7F8084B23
:4022C00053F8203043B10022054B43F8202040F00040044B186008BD024B186008BD00BF3084FF1F9884FF1F10B500F0D3F8124B1B68B0F1FF3F1AD0104A52F82010104ABA
:402300001268914213D9B3F1FF3F03D002240D4941F8234000210B4B43F820100A4B53F820301A43064B1A60FFF7C6FF10BD43F00043064A136010BD2C82FF1FE839000022
:402340007484FF1F4482FF1FB43900009884FF1F034B1B6813B10022014B1A60704700BF8884FF1F204B1A68204B1968EFF3108372B6022829D830B41D4C54F8204044BB86
:4023800051B9B2F1FF3F26D01A4C54F822501A4C54F82040A54220D809BB184951F82250174C44F8205041F822000121104A42F8201014490C68144A42F820400E4A52F88C
:4023C000202022430A6000200AE0032083F310887047012004E0012002E0012000E0012083F3108830BC70472C82FF1F9484FF1F2484FF1FE8390000803900004881FF1F78
:402400003C81FF1F7484FF1FE48CFF1FF0B4184B19880B0A174AD356B3F1FF3F01D1535601E008335BB2144D55F82320134850F82200134E56F8224045F82340114D2F68F4
:4024400046F822702A60B4F1FF3F09D10E4A42F82340012202FA03F321EA0301044B19800A4B19680A4A42F820101860F0BC70477084FF1FA0370000EC81FF1F6C8CFF1F4B
:402480007081FF1F6C84FF1FAC81FF1F2C82FF1F3082FF1F0C4B1A88130A0C49CB56B3F1FF3F01D18B5601E008335BB2B3F1FF3F06D0074A52F82320064B53F822007047C3
:4024C0004FF0FF30704700BF7084FF1FA0370000EC81FF1F6C8CFF1F30B4144B53F82020134C2368134951F823502560124C44F823004FF0FF3441F82340104951F822107A
:40250000A1420AD10E4951F820400E480188214301800D4941F8223002E0064840F82130064941F8223030BC704700BF8481FF1F6C84FF1F7081FF1F6C8CFF1FAC81FF1FA2
:40254000E83900007084FF1FEC81FF1F10B150F8210070474FF0FF30704700BF0122014B1A60FEE79084FF1F70B50546124B53F8306000241CE0104B03EBC50321465868D8
:40258000FFF7E4FF0D4A52F82030013B42F820300B4B53F82030032B07D10222084B43F820200022074B43F82020FFF795FF0134B442E0D370BD00BFA03800009881FF1F50
:4025C0004482FF1F5884FF1F18B908B5FFF7CCFF08BD7047194B1A4ADA621A4A9A631A4ADA63EFF3108272B6184B1B6813BB10B5044600F0EFF8164B1C600122134B1A601E
:402600002046FFF7E1FFFFF745FFB0F1FF3F0ED0104B53F82030104A11680B43136000220E4B43F82020FFF7F1FE00F0E7FA62B6FFF794FF82F31088072070470080FF1F07
:40264000BD2B0000812B0000910000009084FF1FC094FF1FB43900007484FF1F4482FF1F08B5EFF3108272B60D4B19680D4B1B6863B90D4B53F82130B3F1FF3F08D14FF093
:40268000FF300A4B43F82100002002E0022000E0062010B9084600F00AFB82F3108808BD2C82FF1F9484FF1F4881FF1F5C81FF1F70B53C4B1A683C4B1B68EFF3108572B677
:4026C00002285BD8394951F82010002958D0384951F82210884255D153B9B2F1FF3F53D0344C54F82260344C54F82040A6424DD8002B4DD1314C54F821402D4941F822402A
:4027000000212A4A42F820102D4A52F820102D4A1160002B3ED1234B1C68FFF7BBFEB0F1FF3F39D0234B53F82020264B1B689A4234D9B4F1FF3F03D00221234A42F8241074
:40274000224A52F8202013431E4A136000221E4B43F82020FFF75AFE1D4B53F820304BB100241B4B43F8204040F0004000F046FA204614E000F042FA002010E003200EE073
:4027800005200CE005200AE0012008E0012006E0012004E0002002E0002000E0002085F3108870BD2C82FF1F9484FF1F2484FF1F4881FF1FE8390000803900003C81FF1F21
:4027C000E48CFF1F7484FF1F4482FF1FB43900003084FF1F38B50D4B1D68EFF3108472B600F0BCF90A4A136843F07F431360094BAB640121022000F029F8074A136843F097
:402800000403136084F3108838BD00BF08ED00E020ED00E00D0E000000E100E001BE704710B5044605E0084B186800F05DFAA4F50044B4F5004FF6D8034B586800FB04F099
:4028400000F052FA10BD00BFA082FF1F38B504460D46072902D90020FFF7E0FF1F2C02D90020FFF7DBFF04F01F0000F1604000F564406D01EDB2057038BD00BF024B187860
:40288000C0F3C000704700BF01510040024B1878C0F30010704700BF01510040024B1878C0F34010704700BF01510040024B1878C0F38000704700BF3151004008B500F018
:4028C0001BFA0A4A137843F020031370013A137843F0100313700232137843F01003137000F00EFA00F0E2F808BD00BF9A640040014B1878704700BF69640040014B187835
:40290000704700BF6B640040034B1B7813F0040FFAD0024B18707047696400404A64004008B501E00A4B1B780A4B1B7813F0200FF8D100F0E1F9084B1A7842F001021A70F3
:402940001A7802F0FE021A7000F0DAF908BD00BF5A6400406B6400409A64004008B50F22064B1A70FFF7DCFFFFF7C2FFFFF7C6FF0023034A13700232137008BD8A6400400E
:402980008964004008B5054B1B7823B9FFF7E6FF0122024B1A70FFF791FF08BD7C84FF1F044A137803F0F703C00000F00800184310707047C0510040044A137803F0EF0311
:4029C000000100F0100018431070704730510040084A137843F0010313701032137843F00103137002F64D32137843F001031370704700BFA3430040014B1880704700BFB3
:402A0000044F0040014B1880704700BF064F0040014B1870704700BF034F004008B5194A137843F0020313700232137803F08F0343F010031370144B1A7802F0CF021A7087
:402A40001A7842F030021A701A7802F0F0021A701A7842F00F021A706420FFF7CDFF0020FFF7D0FF0020FFF7D3FF084A137843F00103137002F65E32137843F00103137000
:402A800008BD00BF004F00400B4F0040A343004008B5054B1B7823B9FFF7C0FF0122024B1A70FFF795FF08BD7D84FF1F054A137843F0010313701032137843F0010313708F
:402AC000704700BFA2430040164BD9799B79DBB2994205D25A1E914214BF0022012204E0CA1A632A14BF00220122002AECD1994207D10D4B1B7813F0040F02D10B4B187019
:402B00007047632900D90021094B58540131054BD971054B1B7813F0020F02D00222054B1A6070477E84FF1F6865004047640040949EFF1F00E200E038B5074B5B782BB9FE
:402B400038BDFFF7C1FF0134A4B201E005460024285D0028F5D138BD7E84FF1F18484FF47F0102680A43026016486FF07F4102680A400260704714484FF08051016070473D
:402B800072B611484FF000610160FFF7ADFB0F48006800F005F958B10C4800684FF080730B4A0C490FB40FB46FF00600004700BF6FF0060062B6004762B600DF08B070478C
:402BC00020ED00E01CED00E004ED00E09884FF1FFD2B0000B92B0000EFF30880054908600548006880F3088870470248006880F308887047B082FF1F8C82FF1F411C89008B
:402C0000154A11440968154A136899421AD0F0B444464D4656465F46F0B400B5104C9B002344EFF308851D60116089002144096881F3088802BC8E46F0BCA046A946B2464C
:402C4000BB46F0BC002806DB00B500F09DF802BC8E46FFF7D3BF7047243A00007884FF1F9082FF1FF0B444464D4656465F46F0B400B5EFF3038308B48000174901440968D6
:402C8000164A0244EFF30883136088471448804704BC4FF08070024382F3038801BC8646F0BCA046A946B246BB46F0BC704780000A4901440A6882F3088804BC4FF0807084
:402CC000024382F3038808BC9E46F0BCA046A946B246BB46F0BC7047FC390000808CFF1F092D0000000000000230800803D000BF01380046FCD17047EFF3108072B67047D5
:402D000080F31088704700BF10B572B6034B1C68204600F00DF82046FFF7C9FF2C82FF1F08B5024B1868FFF79DFF08BD2C82FF1F10B4104B53F820304FF0FF310BE00E4AEF
:402D400052F823200B4941F8202000240B4941F8234019461346B3F1FF3FF0D1B1F1FF3F04D0074B53F82120064B1A60084610BC704700BF4881FF1F3C81FF1F2484FF1F15
:402D8000E48CFF1F7484FF1F08B562B6FFF7C8FF72B600F041F8014B186808BD9884FF1F00280BDA20F000400130054B53F82000044B1B68181A18BF0120704701207047ED
:402DC000243A00007884FF1F054B53F82020054B53F820309A4201D101207047002070479881FF1FA039000008B5FFF70FFB084B53F8203043B10022054B43F8202040F06C
:402E00000040044B186008BD024B186008BD00BF3084FF1F9884FF1F38B5364B1C680022354B1A60354A52F82430013342F82430334B53F824502046FFF7C6FF012801D02C
:402E4000A54204D103222F4B43F8242003E002222C4B43F824202C4B53F824102B4A136823EA010313602A4B53F82440214B1C60B5F1FF3F0FD0234B53F82530032B07D12E
:402E80000222204B43F825200022224B43F825202846FFF721FBFFF7FDFAB0F1FF3F0BD1B4F1FF3F03D00022164B43F8242044F00044194B1C6038BD184B53F82020134B7B
:402EC0001B689A4208D800220E4B43F8242044F00044114B1C6038BD00210A4A42F82010094A52F820201343084A1360FFF77CFF38BD00BF2C82FF1F8884FF1F9881FF1F2B
:402F00005C81FF1F4482FF1FB43900007484FF1F3082FF1F5884FF1F9884FF1FE8390000014B1868704700BF1483FF1F0E4B70B51E460E4C0025E41AA410A54204D056F877
:402F4000253098470135F8E700F006FE084B094C1E46E41AA4100025A54204D056F8253098470135F8E770BD643B0000643B0000643B00006C3B000010B5431E0A449142E7
:402F800004D011F8014B03F8014FF8E710BD03460244934202D003F8011BFAE770470000000000000300000003000000000000000000000004000000000000000000000002
:402FC00005000000000000000000000003000000030000003030000001000000040000000C3000000300000005000000F42F00000200000001040000000000007D03000073
:4030000004050000000000007D03000001040000000000007D03000002050000000000000000000000030000000000007D0400000004000000000000A50200000300000049
:403040000000000000000000000000000100000000000000000000000200000000000000000000000300000000000000EC3000000200000001000000BC300000040000003B
:40308000020000008C3000000400000000000000A1010000A906000001020000000000009D0600000202000000000000910600000402000000000000850600000002000029
:4030C000A10100007106000001010000000000006506000002010000000000005906000004010000000000004D060000000100000000000041060000030000000000000045
:40310000B5010000B50600000100000001000000110B0000FA000000E10B0000E803000002000000F106000019000000B10A0000FA0000003D0A000060EA000000000000D7
:40314000030000000FB103053C3CB203053C3CB306053C3C053C3CB40103C003280804C101C0C2020D00C3028D2AC4028DEEC5011A3601C0E0100422070A2E30252A28266F
:403180002E3A00010313E10F16060D2D26232727252D3B000104133A0105290000000000003E5B4F5B3E3E6B4F6B3E1C3E7C3E1C183C7E3C181C577D571C1C5E7F5E1C0057
:4031C000183C1800FFE7C3E7FF0018241800FFE7DBE7FF30483A060E2629792926407F050507407F05253F5A3CE73C5A7F3E1C1C08081C1C3E7F14227F22145F5F005F5F90
:4032000006097F017F006689956A606060606094A2FFA29408047E040810207E201008082A1C08081C2A08081E101010100C1E0C1E0C30383E3830060E3E0E0600000000E5
:403240000000005F00000007000700147F147F14242A7F2A12231308646236495620500008070300001C2241000041221C002A1C7F1C2A08083E08080080703000080808A4
:403280000808000060600020100804023E5149453E00427F400072494949462141494D331814127F1027454545393C4A49493141211109073649494936464949291E0000B8
:4032C000140000004034000000081422411414141414004122140802015909063E415D594E7C1211127C7F494949363E414141227F4141413E7F494949417F090909013E22
:40330000414151737F0808087F00417F41002040413F017F081422417F404040407F021C027F7F0408107F3E4141413E7F090909063E4151215E7F09192946264949493229
:4033400003017F01033F4040403F1F2040201F3F4038403F631408146303047804036159494D43007F4141410204081020004141417F040201020440404040400003070864
:403380000020545478407F284444383844444428384444287F385454541800087E090218A4A49C787F0804047800447D40002040403D007F1028440000417F40007C04786A
:4033C00004787C080404783844444438FC1824241818242418FC7C08040408485454542404043F44243C4040207C1C2040201C3C4030403C44281028444C9090907C44643E
:40340000544C4400083641000000770000004136080002010204023C2623263C1EA1A161123A4040207A385454555921555579412254547842215554784020545579400C73
:403440001E5272123955555559395454545939555454580000457C410002457D420001457C407D1211127DF0282528F07C545545002054547C547C0A097F49324949493285
:403480003A4444443A324A4848303A4141217A3A42402078009DA0A07D3D4242423D3D4040403D3C24FF2424487E4943662B2FFC2F2BFF0929F620C0887E090320545479A8
:4034C000410000447D413048484A32384040227A007A0A0A727D0D19317D2629292F28262929292630484D4020380808080808080808382F10C8ACBA2F102834FA00007BC0
:40350000000008142A142222142A14085500550055AA55AA55AAFF55FF55FF000000FF00101010FF00141414FF001010FF00FF1010F010F0141414FC001414F700FF000058
:40354000FF00FF1414F404FC141417101F10101F101F1414141F00101010F0000000001F101010101F10101010F010000000FF101010101010101010FF10000000FF14006B
:4035800000FF00FF00001F10170000FC04F414141710171414F404F40000FF00F714141414141414F700F7141414171410101F101F141414F4141010F010F000001F101F72
:4035C0000000001F14000000FC140000F010F01010FF10FF141414FF141010101F00000000F010FFFFFFFFFFF0F0F0F0F0FFFFFF0000000000FFFF0F0F0F0F0F38444438E3
:4036000044FC4A4A4A347E02020606027E027E0263554941633844443C04407E201E2006027E020299A5E7A5991C2A492A1C4C7201724C304A4D4D303048784830BC625A84
:40364000463D3E494949007E0101017E2A2A2A2A2A44445F444440514A444040444A51400000FF0103E080FF000008086B6B083612362436060F090F060000181800000025
:403680001010003040FF0101001F01011E00191D1712003C3C3C3C000000000054465400427566666572206F766572666C6F77000A000000554152542073746172746564B2
:4036C00000000000203A2000010000003C010000001801000000000025170000000000000000000000000000000000000000000000000000010000000200000000000000BA
:4037000000000000010000000000000001000000243700000000000000000000010000000100000003000000D516000000000000000000000000000000000000000000003C
:4037400000000000000000000100000000000000004F00400C00205100401000405100403000F0510040100000000140000A800A0140800500140140000800400140000AD7
:40378000004C0140000200500140200060520040640500480600000A01406C0500488000FF000101020202020303030303030303040404040404040404040404040404043B
:4037C0000505050505050505050505050505050505050505050505050505050505050505060606060606060606060606060606060606060606060606060606060606060669
:4038000006060606060606060606060606060606060606060606060606060606060606060707070707070707070707070707070707070707070707070707070707070707E8
:403840000707070707070707070707070707070707070707070707070707070707070707070707070707070707070707070707070707070707070707070707070707070788
:40388000070707070707070707070707070707070707070707070707070707070707070701000000A83800000000000001000000020000000400000000000000FFFFFFFF44
:4038C00000000000040000000000000000000000FFFFFFFF01000000020000000200000000000000FFFFFFFF01000000020000000800000000000000FFFFFFFF00000000C0
:40390000020000000000000000000000FFFFFFFF00000000000000000000000000000000010000000000000000000000020000000000000000000000030000000000000083
:403940000000000004000000000000000000000001000000020000000300000004000000000000000100000002000000030000000400000080380100010000000100000074
:4039800080000000800000004000000000000000000000000100000001000000010000000100000001000000010000000100000001000000800000000200000080000000BD
:4039C0004000000004000000010000000200000004000000080000001000000000000000010000000200000001000000020000008000000040000000040000005101000048
:403A00009D010000E10D0000890D0000B50D0000212D0000212D0000212D0000212D0000212D0000000000000000000000000000010000000200000003000000616C726D6A
:403A40005F3235306D735F696E70757400000000616C726D5F3235306D735F646973706C61790000616C726D5F627574746F6E507265737365640000616C726D316D696E6C
:403A80005F696E7075740000616C726D5F35306D735F696E7075740065765F6576656E74735F6F6E446174610000000065765F427574746F6E735072657373656400000014
:403AC00065765F3235306D730000000065765F316D696E0065765F35306D73007265735F627574746F6E735F4C6F636B000000007265735F6576656E74735F4C6F636B0021
:403B00007265735F636C6F636B646174615F4C6F636B000074736B5F696E69740000000074736B5F6261636B67726F756E64000074736B5F696E70757400000074736B5F86
:403B4000636F6E74726F6C0074736B5F646973706C61790043000000F8B500BFF8BC08BC9E4670474D000000FD1A0000F8B500BFF8BC08BC9E46704729000000903B000004
:403B8000C880FF1F50020000481C00000000000000000000D02F000003000000A82F00000300030068300000030000004030000003000000010100000000000000000000FA
:403BC00000000000283700000500000000000000FC360000010000003C0100000018010000000000D43600003C3A0000503A0000643A0000783A0000883A000000000000BC
:403C0000FFFFFFFFFFFFFFFFFFFFFFFFFFFFFFFFFFFFFFFFFFFFFFFFFFFFFFFFFFFFFFFFFFFFFFFFFFFFFFFFFFFFFFFFFFFFFFFFFFFFFFFFFFFFFFFF0100000002000000B9
:403C40000300000004000000FFFFFFFF00000000010000000700000006000000020000000100000001000000010000000100000001000000FFFFFFFFFFFFFFFFFFFFFFFF38
:403C8000FFFFFFFFFFFFFFFFFFFFFFFFFFFFFFFFFFFFFFFFFFFFFFFFFFFFFFFFFFFFFFFFFFFFFFFFFFFFFFFFFFFFFFFFFFFFFFFFFFFFFFFFFFFFFFFFFFFFFFFFFFFFFFFF44
:403CC000FFFFFFFFFFFFFFFFFFFFFFFFFFFFFFFFFFFFFFFFFFFFFFFFFFFFFFFFFFFFFFFFFFFFFFFFFFFFFFFFFFFFFFFFFFFFFFFFFFFFFFFFFFFFFFFFFFFFFFFFFFFFFFFF04
:403D0000FFFFFFFFFFFFFFFFFFFFFFFF0300000003000000030000000300000003000000983A0000AC3A0000C03A0000CC3A0000D43A0000DC3A0000F03A0000003B00003F
:403D4000143B0000203B0000303B00003C3B0000483B0000949EFF1F00000000448CFF1F6C9CFF1F9894FF1F0000E02EC05D00001800000000366E0100000000000000009E
:403D800000000000000000000000000000000000000000000000000000000000543B0000000000000000000000000000000000000000000000000000000000000000000074
:403DC00000000000000000000000000000000000000000000000000000000000B482FF1F00000000000000000000000000000000000000000000000000000000000000006F
:403E00000000000000000000000000000000000000000000000000000000000000000000000000000000000000000000000000000000000000000000000000000000000082
:403E40000000000000000000000000000000000000000000000000000000000000000000000000000000000000000000000000000000000000000000000000000000000042
:403E80000000000000000000000000000000000000000000000000000000000000000000000000000000000000000000000000000000000000000000000000000000000002
:403EC00000000000000000000000000000000000000000000000000000000000000000000000000000000000000000000000000000000000000000000000000000000000C2
:020000040003F7
:0200000480007A
:40000000024F004002640040026500400103014001050140630601403E070140570801403E090140110A0140320B014004140140061501400F170140401801404D190140C8
:40004000081B01400340014009410140074201400A430140024401400145014001460140014701400748014006490140044C01400C4D0140055001400151014001200A3601
:4000800087388A0F880F89728340A740020C082C0A4314711501160619011C801E13220824712501260E290130C031013230340F380A39023A203E043F014003460449FF47
:4000C0004A074BFF4C404D204EF04F055008580459045A045C015D015F01604061A8624063208220830386208C038E148F2092089413950C960C9771980A9A149D14A1099D
:40010000A215A3D0A510A7ACA813A9DCAA04AB22AD10AF40B010B20FB3E0B420B71FBA08BB08BE11C035C106C5C0C6EBC80EC9FFCAFFCBFFCEF0CF44D00CD418D604D804A2
:40014000D904DA04DB04DC11DD11DF01E6C0EA40EB020086051109200A500E120F011208130115081640184019041A101B201D391E40200121042208278029152A402F18E9
:400180003080320835083720388142104508484049024A094C404F01508051105640580160086280638089028C4099089B20A308A740A908AB20B708C05DC2AEC43ACA6FD6
:4001C000CC6ACE09D042D20CD601D80DE81003010402070108020C020D01100219011A012A0132013301340239083A023E144062410542044401450E460C480549FF4AFF42
:400200004BFF4C624DA04EF04F41500C580459045A045C115D015F016640670269106A306B106D106E106F1280048280845685908609872A880189FC8C848D208FC19007ED
:40024000910492389404980A99FC9A10A084A484A548A732A880AA04AC60B008B1E0B27FB318B480B504B602B703B808BE51BF40D409D804D904DB04DC10DF01008A03086A
:400280000484052006020A580E800F48111412011301172019501A801B081E841F04206021A427202820302033013520384039283A403C043E023F4045A047024D204F48A3
:4002C0005740581059065A8061408A108D409008911492589301981099049A019B089D10A045C0EFC25EC44FCA02CC25CEDED0B0D230D60FD808E0C0845586AA8C208ED0A9
:40030000980E9C339EC4A494A669B40FB6F0B820BA80D440D804DB04DF0100860408054008100A510B080E080F02111413011708180819A01A591B011D401E08200C21A0C1
:40034000231829212B01300831A0320139543B014004424049954B02500852115304614066106712684169546A027301C0ADC2CFC42ECA0DCC0FCE0FD005D20CD878B88034
:40038000BE40D804DF011F4087509720AC01B401EE08840189109001912097209C01A401A804AA80AB20AC08AF80E20AEA04EE08060609010E0410021401260634013501AB
:4003C00036063E103F1054015604580459045B045D105F0180038304840C85188613880289088C0F8DFF8E1093E394139580960C9801993C9A209BC29D109E13A008A1C020
:40040000A404A544A80CA9E7AB18AC1FAD1CAFE1B01CB1C0B40FB51FB620B738BA22BB20D602D712D804D904DB04DC11DD10DF010064024803800408054008240A020D08CE
:400440000E40108012141354170818C219201B011D401E0820042102229023022620282029202B812C042D2030803219330238023A143B403D205A045C015D405E286780CD
:40048000682069206B01708073148502874089088A209008914092449340948495209A409B089C209D209F03A010A210A302A420AB40AF04B532B70AC0AFC237C42FCA0F03
:4004C000CC0FCE2FD6F2D880E4208C209C20A801A908AE80B140B510EC1033113580CC70052008080E1083109D809F11C080C230E22053089210980899209D809F01D4203B
:400500001B089D809F01A708A808AA10B520C610E880EC207004DC01940894089408671085809D80AF01D880E210EA40030887189710C040E210E4408804B404E004E80842
:400540001280740478408E809840A004B040C408DC01DE04E202E80100030A020C0310031C03003F8094000040000000988D0200FC8D0300008D00009A0D0080138D640099
:400580003840C000024200082102D80D9A0000809800020002629814001100221300E0800F700F0F0000A8A0000000045204600000DEF0BC3BFFFFFF2200F00804000000C6
:4005C0000000022004040404000000010000C00040011011C001001140014001000000000000000000000000000000003800000000000000800040BCBC00B400000000002E
:40060000000B0B0000000000041818000800000000000000000000000000000000000000000000000000000000000000000000000000000000000000000000000000000068
:40064000000000000000000000000000000000000000000000000000000000000000000000000000000000000000000000000000000000000000000000000000000000007A
:40068000000000000000000000000000000000000000000000000000000000000000000000000000000000000000000000000000000000000000000000000000000000003A
:4006C00000000000000000000000000000000000000000000000000000000000000000000000000000000000000000000000000000000000000000000000000000000000FA
:4007000000000000000000000000000000000000000000000000000000000000000000000000000000000000000000000000000000000000000000000000000000000000B9
:0200000490006A
:0400000000004005B7
:0200000490105A
:04000000BC90ACAF55
:0200000490303A
:02000000475661
:0200000490402A
:4000000000000000000000000000000000000000000000000000000000000000000000000000000000000000000000000000000000000000000000000000000000000000C0
:400040000000000000000000000000000000000000000000000000000000000000000000000000000000000000000000000000000000000000000000000000000000000080
:400080000000000000000000000000000000000000000000000000000000000000000000000000000000000000000000000000000000000000000000000000000000000040
:4000C0000000000000000000000000000000000000000000000000000000000000000000000000000000000000000000000000000000000000000000000000000000000000
:0200000490501A
:0C00000000012E16106900012E2D57BFC4
:00000001FF